:020000040801F1
:10000000F0180020CD00010839500108692F0108BF
:1000100000000000000000000000000000000000E0
:10002000000000000000000000000000C9510108AD
:1000300000000000000000009150010891520108EA
:10004000DF00010800000000DF000108DF000108F8
:10005000DF000108DF000108DF000108DF00010800
:10006000000000005D0401086D0401084D04010852
:10007000DF00010869530108DF00010800000000EB
:10008000B1530108DF000108DF000108195301081E
:10009000DF000108DF000108DF0001086D2F010803
:1000A000DF000108DF000108DF000108555B0108DF
:1000B000DF000108395C01080348854600F0B4F907
:1000C00000480047D55E0108F0180020044880472A
:1000D00004480047FEE7FEE7FEE7FEE7FEE7FEE72F
:1000E00015530108B900010830B50B460146002040
:1000F0002022012409E00D46D5409D4205D31D462E
:100100009540491B2546954040191546521E002D25
:10011000F1DC30BD70B500242546002801DA012449
:100120004042002901DA01254942FFF7DDFFAC42D8
:1001300000D04042002C00D0494270BD03460B4322
:100140009B0703D009E008C9121F08C0042AFAD28D
:1001500003E00B780370401C491C521EF9D2704713
:10016000D2B201E00270401C491EFBD2704700224F
:10017000F6E710B513460A4604461946FFF7F0FFA6
:10018000204610BD30B504460020034600E05B1C4D
:10019000934203D2E05CCD5C401BF8D030BDF8B593
:1001A00002464A40D40F42004B0052085B089A4274
:1001B00002D20246084611464A0023D0C30D4A0027
:1001C000DDB2120EAD1A202D35DA49020126490A98
:1001D000F6058A19002C00D0524220214F1B1146EF
:1001E000B9402A411018C20D9A4221D0002C17D0D4
:1001F000012D08DCDA05801AD20F8019D207DBB294
:1002000000F0D8F8F8BDDA05801A012340001B067B
:10021000C01880185A428018CA0F1043490007E0DE
:100220004908C2071143DA05801A8019400880186E
:1002300000F0B8F8F8BD61000122511A001BF7E781
:100240000122D2075140AAE70122D2075040A6E777
:10025000024670B54A40D30FDB0740002DD04A005C
:100260002AD0010E140E000212020919400A520A85
:100270008418E50104465443000A120A2E04504330
:10028000A4194219200CC543AA18120C0125AD036C
:10029000521C521912047F39240400D0521C1043FE
:1002A00001D44000491EC2B20C06C0092018401CEF
:1002B0004008802A02D003E0002070BD40084000C2
:1002C000002900DA0020184370BD70B502464A408C
:1002D000D50F40004A00ED0740085208002814D00E
:1002E000002A12D0C40DD30D41020120C0055202D4
:1002F000490A520AE41A091812187D34914201D3AE
:10030000641C00E04900002C01DA002070BD0023CD
:10031000914201D3891A0343400849000028F7D1CC
:1003200000290AD0914202D10121C90705E091427A
:1003300001D2012101E00121C943E005C0184019A3
:1003400000F030F870BD10B500229623114600F081
:1003500031F810BD410040020122400AD205090EC9
:1003600080187F2901DA00207047962903DC962245
:10037000511AC84070479639884070470122D20709
:10038000002800DB101A002900DB511A8142704757
:100390000122D207002800DB101A002900DB511AC5
:1003A00088427047002904DA401C490001D1400806
:1003B0004000704770B40024050C05D110240004DF
:1003C00002D1002921D01124050E01D100020834E8
:1003D000050F01D10001241D850F01D18000A41C4F
:1003E000002801DB4000641C002908D020252E1BBA
:1003F0000D46F540A14000D00121294308430106E4
:100400001B1B000ADB1D02D5002070BC7047DB05FA
:10041000181880180029F8DA401C4900F5D170BC82
:100420004008400070470000064C0125064E05E0DC
:10043000E36807CC2B430C3C98471034B442F7D305
:10044000FFF73EFE44B8010864B8010810B5024841
:1004500000F06EFE10BD00002C04002010B5024814
:1004600000F066FE10BD00001803002010B5034820
:1004700000F05EFE024800F05BFE10BD7403002039
:10048000D003002070B50446206C80088000094924
:10049000401860642178084608381421FFF724FECC
:1004A000054604488030A064E906C90E0120884052
:1004B000E06470BD0008024002799106890E4A1E70
:1004C0009200064BD2180265044A403242654A1E29
:1004D00093079B0F01229A408265704700090240F2
:1004E00070B504460120C002844201DBFF2070BDCC
:1004F00003F0D0F9A02003F0DDF803F06DF8002838
:1005000003D003F0E3F9FF20F1E7201203F0D2F863
:1005100003F062F8002803D003F0D8F9FF20E6E7E3
:10052000E0B203F0C7F803F057F8002803D003F057
:10053000CDF9FF20DBE703F0ADF9A12003F0BAF815
:1005400003F04AF8002803D003F0C0F9FF20CEE7FB
:1005500003F060F80546012003F08CF803F0B6F9CB
:100560002846C4E770B504460D460120C002844207
:1005700001DB012070BD03F08DF9A02003F09AF893
:1005800003F02AF8002803D003F0A0F90120F1E7D6
:10059000201203F08FF803F01FF8002803D003F0B7
:1005A00095F90120E6E7E0B203F084F803F014F8CF
:1005B000002803D003F08AF90120DBE7284603F086
:1005C00079F803F009F8002803D003F07FF901203F
:1005D000D0E703F07BF90A2000F09AFE0020C9E77B
:1005E00070B59748807A012878D100250026944874
:1005F000407A022800DA70BD9148407A801E81B2AC
:100600008F48BF3804F064FB05468D48407A801E51
:100610008B49BF39085C02028948407A401E085C59
:10062000101886B203F090F9B5427CD18548008855
:10063000854908808248C0388078202878D008DC36
:1006400002280DD005281BD0072848D008286CD1D7
:1006500057E036287CD0372869D03828F7D1B3E066
:10066000EC20FFF73DFF7649C0390870087805F0A7
:10067000BFFA05F0A3FA0021714841728172D5E0FA
:10068000EC20FFF72DFF6E49C039497888421ED112
:100690006B48C038C078002816DD6948C038C0787B
:1006A000FF2811DC6648C038C178EC20FFF75AFFFC
:1006B000EC20FFF715FF6249C0390870052160483A
:1006C000BF3805F087FA02E0AA2005F091FA05F09C
:1006D00075FA00215A4841728172A7E0AEE004F039
:1006E00027F904F003F904F013F908215448BF383E
:1006F00005F070FA05F062FA0021514841728172EA
:1007000094E004F00DF904F0E7F804F0F9F808219A
:100710004B48BF3805F05EFA05F050FA0021484812
:100720004172817282E088E002E07EE010E02DE01C
:10073000EC20FFF7D5FE4249C0394978884206D1FE
:1007400000213F48C0300175C820404908706DE065
:10075000EC20FFF7C5FE3A49C0394978884214D1E8
:1007600001203B4908700121A120FFF7FBFE00207A
:1007700004F08EF808213248BF3805F02BFA05F056
:100780001DFA00212E48417281724FE0EC20FFF7E4
:10079000A7FE2B49C0394978884214D100202C4942
:1007A00008700021A120FFF7DDFE002004F070F8A2
:1007B00008212348BF3805F00DFA05F0FFF90021A4
:1007C0001F484172817231E00024EC20FFF788FE5F
:1007D0001B49C0394978884226D1002005E01849D4
:1007E000BF390A5CCA310A54401C0628F7DB184896
:1007F000017813480B300171062104F069FA0446B0
:100800002046E117090E091809040A0E0C490B319C
:100810008A710846C471082105F0DCF905F0CEF9AB
:10082000002107484172817200E000BF00BF05F05F
:10083000C5F9002102484172817200BF00BFDAE6AB
:10084000130A0020080000200200002006000020FB
:100850003D00002072B600BFFEE70000F0B58DB08D
:10086000002400200C9000270B900A90099000BFF4
:100870000C980C9008A801790171FB48807A002837
:1008800001D10DB0F0BDF848407A022800DAF8E74F
:10089000F548407A801E81B2F348BF3804F018FA58
:1008A0000B90F148407A801EEF49BF39085C020284
:1008B000ED48407A401E085C101880B20A900A99F0
:1008C0000B9888427ED1E9480088E9490880EC20ED
:1008D000FFF706FEE449C03949788842F2D1E24880
:1008E000C038807812286ED010DC07286CD006DC67
:1008F00001281CD0032822D0062866D1A0E00828B1
:100900007ED010287DD01128F7D1B9E1202879D0E8
:1009100006DC132877D0142876D01528EDD1B5E25F
:10092000362872D0372871D03828E6D126E3042043
:10093000D04908700121CC48C030C17449E3CA488D
:10094000C038C0780002C849C03909790843089006
:10095000C548C03840790002C349C0398979084385
:1009600007900898089007980790BF48C038077903
:10097000002600BF282F03DBAA2005F039F95EE02E
:10098000BD480078012806D1B7490B31384604F03C
:1009900055FB064605E0B4490B31384603F07EFAB4
:1009A0000646002E41D11422B44902A8FFF7C6FB27
:1009B000AD48C038017868460172AB48C03801794B
:1009C000684603E006E3A2E18DE001E3C172A648B8
:1009D000C17A68460173A4480B3041786846417378
:1009E000A1480B308178684681739F480B30C178ED
:1009F0006846C173082102A804F06AF9054606E0BA
:100A00007DE088E080E2B3E1F9E189E29FE22846F7
:100A1000E917090E091809040A0E69460A744D748B
:100A20000A2102A805F0D6F804E004218E480B3014
:100A300005F0D0F8C8218C480B30FFF798FBC8E2CE
:100A40008948C03807798C480078012826D1282F9A
:100A500001DA042F03DAAA2005F0CAF842E00025E3
:100A6000002600200890089808907F4DBB3D3E4628
:100A70002946304603F058F80890052000F048FC5D
:100A800004212846FFF773FB2946304604F0D6FAC6
:100A900008900A21281F05F09DF823E0282F03DB8A
:100AA000AA2005F0A5F81DE00025002600BF6E4D28
:100AB000BB3D2946384603F0F1FE04212846FFF7E6
:100AC00056FB2946384603F0E9F90646002E03D0C6
:100AD000AB2005F08DF804E00A216348BF3805F02B
:100AE00079F800BF75E203F023FF03F0FFFE03F087
:100AF0000FFF08215C48BF3805F06CF869E203F08D
:100B00000FFF03F0E9FE03F0FBFE08215648BF3853
:100B100005F060F85DE25448C038C07800025249E0
:100B2000C0390979084308904F48C038407900021D
:100B30004D49C03989790843079000264A48C03892
:100B4000857908980890079807904748C038067933
:100B500049480078012845D1282E01DA042E03DA0D
:100B6000AA2005F045F87EE03F48B93806900020FD
:100B700005900FE0059A9300069A9918059AB21805
:100B8000D0B202F0D1FF052000F0C2FB0598401C56
:100B9000C0B20590E917890F49198A1005998A4250
:100BA000E8DC002005900CE0059A9300069A99185D
:100BB000059AB218D0B204F041FA0598401CC0B2B0
:100BC0000590E917890F49198A1005998A42EBDCCB
:100BD0002548C0388079014608312348BF3804F0E1
:100BE000F9FF40E0282E03DBAA2005F001F83AE0E7
:100BF0001D48B9380690002005900CE0059A930036
:100C0000069A9918059AB218D0B203F047FE0598D3
:100C1000401CC0B20590E917890F49198A1005993F
:100C20008A42EBDC002005900CE0059A9300069ABE
:100C30009918059AB218D0B203F030F90598401C03
:100C4000C0B20590E917890F49198A1005998A429F
:100C5000EBDC0548C0388079014608310248BF38CE
:100C600004F0B8FF00BFB4E1130A00200800002020
:100C700002000020840000203D000020E4B40108B0
:100C8000002600BF00200790089004900590069071
:100C90000025112168460177E921417735218177C7
:100CA0006E21C177142408E02046143807AA115C8D
:100CB0002046FFF757FC601CC4B21C2CF4DBCA486A
:100CC000417868460174C8488178684641741424A4
:100CD00008E02046FFF704FC2146123904AA5054CC
:100CE000601CC4B21C2CF4DB0A2104A803F0F0FF42
:100CF00005462846E917090E091809040A0E69462F
:100D00008A76CD760C2104A804F064FF61E100200E
:100D1000089008980890002520216846FFF727FAD8
:100D20000026B148417868460170AF48817868462E
:100D3000417000BF07E02846FFF7D2FB6A46A91CB6
:100D40005054681CC5B2102DF5DB1221684603F023
:100D5000BFFF06463046F117090E091809040A0EAE
:100D600069468A74CE741421684604F033FF30E17A
:100D7000002600BF00200790089004900590069080
:100D80000025072168460177E921417735218177E0
:100D90006E21C177282408E02046283807AA115C74
:100DA0002046FFF7DFFB601CC4B2302CF4DB8E481A
:100DB0004178684601748C488178684641742824DB
:100DC00008E02046FFF78CFB2146263904AA505440
:100DD000601CC4B2302CF4DB0A2104A803F078FFB5
:100DE00005462846E917090E091809040A0E69463E
:100DF0008A76CD760C2104A804F0ECFEE9E000260A
:100E000000BF0020079008900490059006900025F0
:100E1000142168460177E9214177352181776E21D8
:100E2000C1773C2408E020463C3807AA115C2046E4
:100E3000FFF798FB601CC4B2442CF4DB6A4841788D
:100E40006846017468488178684641743C2408E02B
:100E50002046FFF745FB21463A3904AA5054601C4E
:100E6000C4B2442CF4DB0A2104A803F031FF054688
:100E70002846E917090E091809040A0E69468A76F8
:100E8000CD760C2104A804F0A5FEA2E00020089075
:100E900008980890002520216846FFF768F9002689
:100EA00000BF08E0A81C504A521C115C2846FFF7FE
:100EB00059FB681CC5B2102DF4DB4B4841786846DD
:100EC00001704948817868464170002507E028464E
:100ED000FFF706FB6A46A91C5054681CC5B2102DCA
:100EE000F5DB1221684603F0F3FE06463046F117A3
:100EF000090E091809040A0E69468A74CE74142171
:100F0000684604F067FE64E0002138480175C82097
:100F10003749087000203749087003F009FD58E090
:100F2000EC20FFF7DDFA3049497888420ED10120E4
:100F3000314908700121A120FFF714FB002003F0C4
:100F4000A7FC08212848401C04F044FE41E0EC20A6
:100F5000FFF7C6FA2449497888420ED10020264975
:100F600008700021A120FFF7FDFA002003F090FC9B
:100F700008211D48401C04F02DFE2AE00025EC202D
:100F8000FFF7AEFA18494978884220D1002005E0E1
:100F90001549491C0A5CCA310A54401C0628F7DB73
:100FA000154801781148B5380171062103F090FE0B
:100FB00005462846E917090E091809040A0E0B49C7
:100FC000B5398A710846C571082104F003FE00E0B6
:100FD00000BF00BF04F0F2FD00210348C0304172A1
:100FE000817200BF4DE4000053090020D30A0020A5
:100FF00006000020200000203D00002001460029BE
:1010000001D1012070472520405C022808D004202F
:10101000C86300BF00222420425400BF0120F1E732
:10102000086800680E2290430A681060486C0068E7
:10103000FF22013290434A6C106008680068400843
:1010400040000A681060124840681C230A6C1A406D
:101050000123934018430E4A50608A6CC86C50605C
:10106000086D002809D0086D0068FF220132904306
:101070000A6D10604A6D886D50600122252042542F
:1010800000BF00222420425400BF0020BAE7000025
:101090000000024070B5044600252520005D0228AE
:1010A00003D00420E06301253AE0206800680E21A7
:1010B0008843216808602068006840084000216873
:1010C0000860606C0068FF2101318843616C086032
:1010D000144840681C22216C114001228A401043B0
:1010E00010494860A16CE06C4860206D002809D070
:1010F000206D0068FF2101318843216D0860616D1A
:10110000A06D486001212520015500BF0021242049
:10111000015500BFA06B002802D02046A16B884774
:10112000284670BD0000024001462520405C704703
:1011300070B5044645480568206806681C20216C87
:101140000140042088402840002820D0042030405E
:1011500000281CD02068006820210840002805D104
:101160002068006804218843216808603748406887
:101170001C22216C114004228A40104333494860EC
:10118000206B002860D02046216B88475CE01C2043
:10119000216C0140022088402840002828D00220ED
:1011A0003040002824D02068006820210840002812
:1011B00008D1206800680A2188432168086001215D
:1011C00025200155214841681C22206C1040022234
:1011D000824011431D48416000BF00212420015579
:1011E00000BFE06A00282FD02046E16A88472BE044
:1011F0001C20216C0140082088402840002823D072
:101200000820304000281FD0206800680E21884345
:10121000216808600D4841681C22206C10400122A2
:1012200082401143094841600120E06301212520EB
:10123000015500BF00212420015500BF606B00282C
:1012400002D02046616B884770BD0000000002405C
:1012500010B50446002C01D1012010BD2A4A216896
:10126000881A1421FEF740FF800020640221252007
:101270000155206800682549084021680860E16838
:10128000A06808432169084361690843A1690843CC
:10129000E1690843216A0843216809680843216815
:1012A00008602046FFF7EEF801218903A068884214
:1012B00001D10020606020798006800E616C08609A
:1012C000A16CE06C4860606800280CD0606804285D
:1012D00009D82046FFF7F0F80020216D0860616D05
:1012E000A06D486003E0002020656065A0650020D7
:1012F000E06301212520015500BF00212420015574
:1013000000BF0020A9E70000080002400F80FFFF97
:1013100070B5044600F00EF906462546681C002804
:1013200002D0054800782D1800BF00F003F9801B9B
:10133000A842FAD370BD00009800002070B50346A3
:101340000A460021D7E001268E4014683440002C64
:1013500073D01579AD07AD0F012D04D01579AD0708
:10136000AD0F022D18D198684E000325B5400646F2
:10137000AE4330464E00D568B54028439860586863
:1013800001258D400646AE4330461026556835404F
:101390002D098D40284358601579AD07AD0F032DF9
:1013A0000BD0D8684E000325B5400646AE43304604
:1013B0004E009568B5402843D8601579AD07AD0F4C
:1013C000022D15D1CD08AE001D462035A8594D0778
:1013D000EE0E0F25B5400646AE4330464E07F60EDC
:1013E0001569B5402843CD08AD001E462036705122
:1013F00018684E000325B5400646AE4330461579C1
:10140000AD07AD0F4E00B5402843186003263604E3
:1014100055683540002D6DD03A4D8E08B600A8595C
:101420008D07EE0E0F25B5400646AE433046052526
:101430002D07AB4202D1002510E05BE0324DAB42FC
:1014400001D101250AE0314DAB4201D1022505E071
:101450002F4DAB4201D1032500E005258E07F60E86
:10146000B5402843274D8E08B600A851254D603D54
:1014700028680546A54328460126360555683540A7
:10148000002D02D00546254328461E4D603D2860AC
:1014900068680546A5432846012676055568354007
:1014A000002D02D0054625432846164D603D686054
:1014B000144D203568680546A54328460126760464
:1014C00055683540002D02D00546254328460D4D70
:1014D0002035686028680546A5432846012636045D
:1014E00055683540002D02D0054625432846054D58
:1014F00020352860491C1568CD40002D00D022E71A
:1015000070BD000060180240000400500008005048
:10151000000C0050024613690B40002B01D0012043
:1015200000E000207047002A01D0816100E0816264
:1015300070470000014800687047000090000020DC
:1015400070477047F8B504462068856920680668CA
:10155000FF2001302840000A00280BD080203040B6
:10156000C009002806D0606C0121084360640802AD
:101570002168C861012080022840800A00280BD021
:1015800080203040C009002806D0606C0821084344
:101590006064C8012168C861012040022840400AF7
:1015A00000280BD080203040C009002806D0606C95
:1015B00002210843606408022168C861676C0B203F
:1015C0003840002803D03946204601F0B7FDF8BD69
:1015D00070B504462068856920680668606B00283D
:1015E00004D0324629462046636B984770BD704749
:1015F000704770477047000070B50446002C01D159
:10160000012070BD184821680860184821680860EA
:101610002168606848602168A0688860FFF78AFFD9
:1016200005460CE0FFF786FF401B312807D92068EC
:10163000C0684007400F002801D00320E1E7206880
:10164000C0684007400F0028ECD120680169E068BD
:10165000814203D02168E068086102E00448216803
:1016600008600020CDE70000CCCC000055550000FC
:10167000AAAA0000014602480A68106000207047CC
:10168000AAAA0000034800680349097840180149E4
:1016900008607047900000209800002010B50024DA
:1016A00008480068FF21013108430649086003200B
:1016B00000F00AF8002801D0012401E000F034F81D
:1016C000204610BD00200240F8B50446002513480E
:1016D000007800281ED0114801787D20C000FEF758
:1016E00003FD074639460E480068FEF7FDFC064636
:1016F00000F0D2FD00280BD1042C07D20022214695
:10170000401E00F045F80748046004E0012502E0AF
:10171000012500E001252846F8BD000098000020C2
:101720009C0000209400002008B500BF0E4800680F
:10173000012108430C49086008460068C007C00F33
:10174000009000BF00BF00BF07484038C06B89054C
:10175000084305494039C8630846C06B090408407E
:10176000009000BF00BF08BD4010024001460029A4
:1017700009DB00BF00BFCB06DB0E01229A40034B02
:101780001A6000BF00BF00BF7047000000E100E02A
:1017900070B504460D4616462946204604F024FB43
:1017A00070BD000070B5044611480068032149026D
:1017B000884320430E4908604815844216D10D49DC
:1017C00009680622514308460B49FEF78DFC451C6B
:1017D00005E0002D01D06D1E01E0032070BD04481E
:1017E00040690121890208408842F2D00020F5E7D3
:1017F000007000409C00002040420F00FEB50446EF
:1018000000270020029001214904206808408842F6
:101810007BD1002001907748C06BC90208400028A6
:101820000ED100BF7348C06B08437249C8630846B5
:10183000C06B09040840009000BF00BF0120019068
:101840006D480068FF21013108436B490860FFF7CC
:1018500071FE064606E0FFF76DFE801B022801D9E7
:10186000032706E064480068FF2101310840002892
:10187000F1D000BF002F4BD15E484030C569032135
:1018800009020D40002D1AD0A069A84217D059486E
:101890004030C0698843054656484030C069012140
:1018A0000904084353494031C8610846C069012111
:1018B000090488434F494031C8610846C561E807BB
:1018C000C00F002813D0FFF735FE064607E0FFF7EC
:1018D00031FE801B4949884201D9032706E045486B
:1018E0004030C069022108400028F0D000BF002F1E
:1018F0000CD140484030C069032109028843A169E6
:1019000008433C494031C86103E00DE0029700E024
:1019100002970198012806D13648C06B01210907BA
:1019200088433449C86300BF2078C007C00F00282F
:1019300009D0304840304069800880006168084321
:101940002C4940314861022120680840022809D111
:101950002848403040690C218843A1680843254944
:101960004031486120212068084020280AD12148C0
:1019700040304069032109038843E16808431D4959
:10198000403148610121890320680840884213D111
:101990001848403040698000800861690843154953
:1019A0004031486109066069884205D11148C06824
:1019B000891308430F49C8600121C9022068084003
:1019C000884215D10B484030406903218903884380
:1019D0002169084307494031486101218903206991
:1019E000884205D10348C068890008430149C8609E
:1019F0000298FEBD001002400070004088130000F5
:101A000070B504460D46002C01D1012070BD6B4815
:101A100000684007400FA84218D268480068C00814
:101A2000C000284365490860FFF784FD064607E0CB
:101A3000FFF780FD801B6249884201D90320E5E75A
:101A40005E4800684007400FA842F1D1022120689B
:101A50000840022815D1042120680840042807D135
:101A60005848806807210903884340185549886011
:101A7000544880680F2109028843A16808435149EE
:101A800088602078C007C00F002854D06068012803
:101A900008D14C48006801214904084000282ED193
:101AA0000120B3E76068022808D146480068012198
:101AB00049060840002822D10120A7E760680028D5
:101AC00008D140480068012189020840002816D149
:101AD00001209BE76068032808D13A484030006A3B
:101AE0000221084000280AD101208FE73548403004
:101AF000C06902210840002801D1012086E7314851
:101B00008068C008C000616808432E498860FFF7FC
:101B100011FD064607E0FFF70DFD801B28498842AE
:101B200001D9032072E7274880683821084061689E
:101B3000C9008842EFD1214800684007400FA84201
:101B400018D91E480068C008C00028431B49086017
:101B5000FFF7F0FC064607E0FFF7ECFC801B184996
:101B6000884201D9032051E7144800684007400F1C
:101B7000A842F1D1042120680840042808D1114866
:101B80008068072109038843E16808430D4988609C
:101B900000F03AF80B4989680F2212021140090A35
:101BA0008900094A515CC906C90EC8400749086046
:101BB00007480068FFF788FD28E700000020024082
:101BC000881300000010024038B501089C00002076
:101BD0009400002001480068704700009C0000202D
:101BE00000B5FFF7F7FF0649896807221203114085
:101BF000090B8900034A515CC906C90EC84000BDE3
:101C00000010024078B50108FEB5354880683821DB
:101C1000084000280DD13248006809020840C10A76
:101C20000120884000902F480099FEF75DFA044695
:101C300054E02B48806838210840082801D12A4CFC
:101C40004CE02748806838210840102834D12448C7
:101C5000C0688607B60F2248C06870210840000996
:101C6000401C0190022E0FD0032E0CD11E4801996A
:101C7000FEF73AFA1A49C9687F2212021140090A8E
:101C8000484305460DE000BF16480199FEF72CFABF
:101C90001349C9687F2212021140090A48430546C8
:101CA00000BF00BF0E48C068400F471C3946284699
:101CB000FEF71AFA044611E0094880683821084006
:101CC000202801D1840209E00548806838210840B5
:101CD000182802D17D24240200E000242046FEBD05
:101CE000001002400024F40000127A00FEB5044601
:101CF000002C01D10120FEBD2078C007C00F0028B4
:101D00006FD0F748876838210F40C0688607B60F44
:101D1000102F01D1032E01D0082F0BD1F0480068FD
:101D200001214904084000285BD06068002858D190
:101D30000120E0E700BF012109046068884205D165
:101D4000E74800680843E649086021E005210904E6
:101D5000606888420ED1E248006801218904084386
:101D6000DF49086008460068012109040843DC498E
:101D700008600DE0DA480068012109048843D84969
:101D8000086008460068012189048843D449086036
:101D900000BF6068002812D0FFF7CCFB054606E0C4
:101DA000FFF7C8FB401B642801D90320A3E7CC48F8
:101DB00000680121490408400028F1D011E0FFF734
:101DC000B9FB054606E0FFF7B5FB401B642801D9C7
:101DD000032090E7C2480068012149040840002818
:101DE000F1D1022120680840022873D1BC488068E4
:101DF000382108400746BA48C0688607B60F102F3A
:101E000001D1022E01D0002F36D1B5480068012142
:101E100089020840002804D0E068002801D1012090
:101E200069E7AF4840687F21090288436169090278
:101E30000843AB494860002F16D1084600680721C7
:101E4000C902884321690843A5490860084600681B
:101E50000722D2021040C20A012090400146A14848
:101E6000FEF742F9A0490860A0480068FFF72CFC83
:101E7000002849D001203EE7E06800282BD0984890
:101E800000680721C9028843216908439449086012
:101E9000084600688915084391490860FFF74AFB26
:101EA000054606E0FFF746FB401B022801D9032048
:101EB00021E78B4800680121890208400028F1D001
:101EC000874840687F210902884361690902084305
:101ED0008349486018E082480068FF210131884347
:101EE0007F490860FFF726FB054606E0FFF722FB67
:101EF000401B022801D90320FDE679480068012132
:101F0000890208400028F1D10821206808400828EB
:101F100049D1734880683821084018280BD170488F
:101F20004030006A0221084000283CD0A069002807
:101F300039D10120DFE6A06900281AD06848403076
:101F4000006A01210843664940310862FFF7F2FA4E
:101F5000054606E0FFF7EEFA401B022801D90320F0
:101F6000C9E65F484030006A022108400028F1D0ED
:101F700019E05B484030006A400840005849403151
:101F80000862FFF7D7FA054606E0FFF7D3FA401BD1
:101F9000022801D90320AEE651484030006A0221F0
:101FA00008400028F1D104212068084004287CD191
:101FB000002001904A4880683821084020280BD131
:101FC00047484030C0690221084000286ED0A06810
:101FD00000286BD101208EE64148C06B010F012023
:101FE0008843002810D000BF3D48C06B012109077D
:101FF00008433B49C8630846C06B09040840009089
:1020000000BF00BF0120019039480068FF21013165
:102010000840002816D13648006808433449086053
:10202000FFF788FA054606E0FFF784FA401B02280E
:1020300001D903205FE62E480068FF2101310840E6
:102040000028F1D000BFA068012808D12448403002
:10205000C0690121084322494031C86120E0A068DD
:1020600005280FD11E484030C069042108431C498F
:102070004031C8610846C069012108431849403110
:10208000C8610DE016484030C06941084900144855
:102090004030C161C0690421884311494031C861A1
:1020A00000BFA068002816D001E040E03EE0FFF746
:1020B00041FA054607E0FFF73DFA401B0D4988420B
:1020C00001D9032017E606484030C06902210840C4
:1020D0000028F0D01EE0FFF72DFA054614E00000BE
:1020E000001002400024F4009C0000209400002016
:1020F0000070004088130000FFF71CFA401B624983
:10210000884201D90320F6E56048C06902210840F1
:102110000028F1D10198012808D15C484038C06BF3
:1021200001210907884359494039C86300BFE06964
:1021300000285AD055484038806838210840102877
:102140007AD0E069022851D1504840380068012116
:10215000090688434D4940390860FFF7EBF9054609
:1021600006E0FFF7E7F9401B022801D90320C2E58A
:102170004648403800680121490608400028F0D14F
:10218000616A206A0843A16A09020843E16A0843B8
:10219000216B08433D494039C9683D4A1140084315
:1021A0003A494039C86008460068012109060843D9
:1021B0003649403908600846C06809040843334975
:1021C0004039C860FFF7B6F9054606E0FFF7B2F9F7
:1021D000401B022801D903208DE52C4840380068B7
:1021E0000121490608400028F0D04AE0274840383D
:1021F0000068012109068843244940390860FFF737
:1022000099F9054606E0FFF795F9401B022801D928
:10221000032070E51D484038006801214906084048
:102220000028F0D119484038C0681A4908401749B9
:102230004039C86025E0FFE7E069012800D15AE590
:1022400012484038C668B107890F206A814216D10A
:1022500070203040616A884211D17F2000023040F6
:10226000A16A090288420AD11F2040043040E16A75
:10227000884204D1710F4907206B814201D00120AF
:1022800039E5002037E500008813000040100240C7
:102290008C80C11FFCFFFEEF70B504462546681E0A
:1022A0000949884201D901200CE0681E07494861AC
:1022B0000321081F03F098FD0020044988610720CE
:1022C0000861002070BD0000FFFFFF0000E000E09B
:1022D00030B502460B4600BF3C20805C012801D18E
:1022E000022030BD01253C20855400BF02253D2041
:1022F00085541068416810688468184D1068A842B9
:1023000006D10F252D050846A8430146586801430C
:1023100070250846A84301461868014310684160CB
:102320000E4D1068A84207D00D4D1068A84203D08A
:102330000C4D1068A84207D180252046A8430446CA
:10234000986804431068846001253D20855400BFCF
:1023500000253C20855400BF0020C2E7002C01402E
:10236000000400400040014010B50446002C01D19B
:10237000012010BD3D20005D002805D100213C203A
:102380000155204600F026F802213D200155211D6F
:10239000206803F031F801214820015500BF3E209C
:1023A00001553F2001554020015541200155422053
:1023B00001554320015500BF00BF44200155452071
:1023C0000155462001554720015500BF3D200155CC
:1023D0000020CEE738B504461B492068884216D154
:1023E00000BF1A480068C914084318490860084625
:1023F0000068C9140840009000BF00BF00221146C9
:102400000D20FFF7C5F90D20FFF7B0F91BE01049CB
:102410002068884217D100BF0C484038C06B0221A9
:1024200008430A494039C8630846C06B0221084086
:10243000009000BF00BF002211461020FFF7A8F94E
:102440001020FFF793F938BD002C014040100240E6
:102450000004004001463D20405C012801D00120DD
:10246000704702233D2043540868C0680123184385
:102470000B68D860114B0868984207D0104B086869
:10248000984203D00F4B086898420FD108688268C1
:102490000D4B1A40062A0FD0D81F82420CD0086874
:1024A0000068012318430B68186005E0086800689D
:1024B000012318430B6818600020D1E7002C01406D
:1024C000000400400040014007000100F8B5044648
:1024D0000D460020009000BF3C20005D012801D186
:1024E0000220F8BD01213C20015500BF02213D2002
:1024F0000155206886683A480640FF2109023046A7
:1025000088430646206886602868502834D00CDC52
:10251000202851D004DC00284CD0102852D14AE0A9
:1025200030284AD040284DD13AE060282ED070287B
:1025300007D001210903401A02D0401A42D10DE010
:1025400043E0EB686A68A968206802F0ADFF206884
:102550008668772006432068866036E0EB686A6804
:10256000A968206802F0A0FF206880680121890323
:1025700008432168886028E0EA686968206802F0FA
:10258000ADFF5021206802F09DFF1EE0EA686968F7
:10259000206802F0BCFF6021206802F093FF14E085
:1025A000EA686968206802F099FF4021206802F01B
:1025B00089FF0AE000BF00BF00BF2968206802F061
:1025C00081FF02E00120009000BF00BF01213D20FB
:1025D000015500BF00213C20015500BF009880E755
:1025E00088FFCEFF014600BF8420405C012801D156
:1025F0000220704701238420435400BF24238820F5
:1026000043500868026808680068400840000B688A
:10261000186001235B071046984302460020486675
:102620000868026020238820435000BF00238420D4
:10263000435400BF0020DCE77047704770B5044684
:102640000D4600BF8420005D012801D1022070BD2D
:1026500001218420015500BF2421882001512068D8
:10266000066820680068400840002168086020680B
:1026700080680721490688432843216888602046EE
:1026800002F05EFF2068066020218820015100BF13
:1026900000218420015500BF0020D8E770B5044612
:1026A0000D4600BF8420005D012801D1022070BDCD
:1026B00001218420015500BF242188200151206878
:1026C00006682068006840084000216808602068AB
:1026D0008068C000C008284321688860204602F056
:1026E0002FFF2068066020218820015100BF0021B3
:1026F0008420015500BF0020D9E77047704770471C
:10270000F0B585B004462068C56920680668206871
:102710008768FA48284003900398002814D12020A5
:102720002840002810D020203040002804D101206B
:1027300000073840002807D0606F002802D02046EC
:10274000616F884705B0F0BD039800287ED0EC4843
:102750003840002803D1EB4830400028F6D0E80785
:10276000C00F00280DD0FF2001303040002808D0D5
:10277000012021680862902000590121084390211E
:1027800008510220284000280CD0F807C00F00286C
:1027900008D00220216808629020005904210843D3
:1027A000902108510420284000280CD0F807C00FC1
:1027B000002808D0042021680862902000590221D6
:1027C00008439021085108202840002810D02020DC
:1027D0003040002803D1CA483840002808D00820DB
:1027E000216808629020005908210843902108516F
:1027F0000120C002284000280ED001208006304071
:10280000002809D00120C0022168086290200059E8
:1028100020210843902108519020005900285ED0C3
:102820002020284000280ED020203040002804D14D
:10283000012000073840002805D0606F002802D032
:102840002046616F88479020005900E048E00290E0
:102850002068806840210840402804D02821029840
:102860000840002835D0204602F0A4FF2068806888
:1028700040210840402828D100BF03F0F1FA019020
:10288000012003F0FFFA2068806840218843216816
:102890008860019803F0F6FA00BF802000590028F4
:1028A0000FD0994980200059816380210859FEF793
:1028B000F1FB002813D0802210591259916B8847E0
:1028C0000DE02046FFF71BFF09E02046FFF717FF4A
:1028D00005E02046FFF713FF00219020015131E76A
:1028E000E06E01287ED11020284000287AD01020E8
:1028F00030400028FAD010202168086220688068E3
:1029000040210840402876D1802000590068406866
:1029100080B20190019800286CD05C20015B019886
:10292000814267DD5E2101980853802000590068CC
:1029300000682021084000284DD100BF03F090FA24
:102940000090012003F09EFA20680068FF21013109
:10295000884321680860009803F094FA00BF00BF24
:1029600003F07EFA0090012003F08CFA2068806862
:102970004008400021688860009803F083FA00BF97
:1029800000BF03F06DFA0090012003F07BFA20688D
:1029900080684021884321688860009803F072FABB
:1029A00000BF20218C2001510020E06600BF03F011
:1029B00057FA0090012003F065FA206800681021A2
:1029C000884321680860009803F05CFA00BF80210A
:1029D0000859FEF713FB022020675C20025B5E2093
:1029E000005B02E057E006E004E0101A81B22046E6
:1029F000FFF722FEA6E65C20015B5E20005B081A62
:102A000080B201905E20005B002843D0019800282E
:102A100040D000BF03F024FA0090012003F032FA06
:102A200020680068FF2121318843216808600098F0
:102A300003F028FA00BF00BF03F012FA0090012053
:102A400003F020FA206880682D49C94308402168B6
:102A50008860009803F016FA00BF20218C200151F5
:102A60000020E066606700BF03F0FAF900900120E3
:102A700003F008FA20680068102188432168086084
:102A8000009803F0FFF900BF02202067204601995B
:102A9000FFF7D2FD56E601200005284000280CD0A3
:102AA000012080053840002807D00120000521685A
:102AB00008622046FFF722FE44E6802028400028D6
:102AC0000FD080203040002804D10120C0053840BC
:102AD000002806D0A06F002802D02046A16F8847AA
:102AE00030E640202840002810D040203040002808
:102AF0000CD0204602F0A0FE24E600000F080000E3
:102B000001000010200100049D5701080120C005AC
:102B10002840002808D0012080073040002803D03A
:102B20002046FFF7EAFD0DE60120000628400028B8
:102B300007D0F00FC007002803D02046FFF77DFD27
:102B400000E600BFFEE510B50446002C01D10120CF
:102B500010BDA069002800D000E000BF8820005907
:102B6000002805D1002184200155204600F02CF8D2
:102B70002421882001512068006840084000216815
:102B80000860A06A002802D0204602F00DFD204611
:102B900002F06EFE012800D1DAE7206840680921C2
:102BA000C902884321684860206880682A218843D8
:102BB0002168886020680068012108432168086056
:102BC000204602F069FDC3E710B58EB0044614211B
:102BD00009A8FDF7CCFA1C2102A8FDF7C8FA9B4909
:102BE000206888427ED1012002900020039002A834
:102BF000FEF704FE002801D0FDF72CFE00BF94482C
:102C0000006801218903084391490860084600686B
:102C1000012189030840019000BF00BF00BF8C481C
:102C20004038406B012108438949403948630846D0
:102C3000406BC007C00F019000BF00BF00BF084637
:102C4000406B042108438249403948630846406B81
:102C500004210840019000BF00BF032040020990FA
:102C600002200A9000200B900C9001200D9009A9E1
:102C700005200007FEF762FB4020099001200A9022
:102C800000200B900C9009A97248FEF757FB002218
:102C900040217048FEF747FC6F48704908603220B9
:102CA000486000216D488160C16080210161002180
:102CB00041618161C1610162FEF7CAFA002801D059
:102CC000FDF7C8FD00BF65498020015108468462B8
:102CD00000BF614814306249086033204860102109
:102CE0005F4800E01DE081600021C160802101613A
:102CF000002141618161C1610162FEF7A9FA0028EA
:102D000001D0FDF7A7FD00BF5548E067846200BF12
:102D1000002211461B20FEF73BFD1B20FEF726FD7F
:102D200092E0504920688842FAD100BF48484038B4
:102D3000C06B01218904084345494039C8630846EE
:102D4000C06B012189040840019000BF00BF00BF93
:102D50003F484038406B012108433D4940394863B2
:102D60000846406BC007C00F019000BF00BF00BF06
:102D70000846406B022108433549403948630846FC
:102D8000406B02210840019000BF00BF2020099045
:102D900002200A9000200B900C9004200D9009A9AD
:102DA00005200007FEF7CAFA0120099002200A90C8
:102DB00000200B900C9004200D9009A92A48FEF7E2
:102DC000BDFA25482830294908603620486000218E
:102DD00026488160C16080210161002141618161DB
:102DE000C1610162FEF734FA002801D0FDF732FD1F
:102DF00000BF1E49802001510846846200BF16486A
:102E00003C301B4908603720486010211848816019
:102E10000021C16080210161002141618161C161A6
:102E20000162FEF715FA002801D0FDF713FD00BF7F
:102E30000F48E067846200BF002211461D20FEF7A4
:102E4000A7FC1D20FEF792FC0EB010BD003801401B
:102E50004010024000080050080002401803002003
:102E6000740300200048004000040050D0030020FC
:102E70002C040020FFB583B004460D461746882079
:102E8000005920286DD1002D01D0002F02D1012042
:102E900007B0F0BD01210903A068884208D120696C
:102EA000002805D1E807C00F002801D00120EFE776
:102EB000002190200151212188200151FEF73AFB89
:102EC0000190542007535620075301210903A0689D
:102ED000884205D12069002802D10026029502E02F
:102EE0002E460020029024E00698009000228021C7
:102EF0002046019B02F0D4FD002804D02021882028
:102F000001510320C4E7002E09D102980088C005B2
:102F1000C00D216888620298801C029003E030781E
:102F200021688862761C5620005B401E81B25620C4
:102F300001535620005B0028D6D10698009000224D
:102F400040212046019B02F0ABFD002804D0202147
:102F50008820015103209BE7202188200151002077
:102F600096E7022094E7704700BFFEE710B50848D7
:102F700000688069072109020840002803D004483E
:102F8000FEF7E0FA02E00248FEF722FB10BD000067
:102F9000A800002070B50546AC6AA06B002802D0DE
:102FA0000020A16B8863E06B002802D00020E16B59
:102FB0008863204600F0A8FC70BD10B5052002F023
:102FC00065FF10BD10B502460020CB07DB0F002BBC
:102FD00009D04223184341239B5C28242340282BFB
:102FE00001D0B023184302230B40022B09D1442304
:102FF000184341239B5C28242340282B01D0B02375
:1030000018430123DB030B400124E403A34201D155
:10301000B8231843102901D190231843202901D146
:1030200020231843402901D14023184313681B680B
:1030300083431468236010BD01688969022211402E
:103040004908002902D0002102689162016889695B
:10305000C907C90F012251405140002904D101681C
:1030600089691143026891617047F8B504464120AF
:10307000005D28210840282856D120688069012158
:1030800009040840070C206880697F214904084032
:10309000050C206880688605B60D2068C068FE2192
:1030A00008400090E06802282ED106202840F11147
:1030B00006221140884216D13546A06C401CA064FF
:1030C000A06C022838D10020A06408202168C861C3
:1030D00000BF00214020015500BF2A463946204646
:1030E000FEF72FFA28E0009D0121C9032046FFF7D3
:1030F00069FF00BF00214020015500BF2A46394624
:103100002046FEF71EFA17E00121C9032046FFF70B
:1031100059FF00BF00214020015500BF2A46394613
:103120002046FEF70EFA07E008202168C86100BFBC
:1031300000214020015500BFF8BD0000F8B504464D
:103140000F464120065D0021422001554E48E062B5
:1031500000206085606C38436064282E03D0292EDF
:1031600001D02A2E09D103212046FFF72BFF282169
:10317000412001554548606326E045492046FFF758
:1031800021FF2046FFF758FF4120005D602819D03D
:10319000202141200155206880690840400900280D
:1031A00010D020688069102108400009002806D04E
:1031B00010202168C861606C0421084360642020ED
:1031C0002168C86100206063256BA06B002829D0AE
:1031D000112D01D0212D25D12068006801218903FE
:1031E0000840884204D1206800688843216808604C
:1031F000A06BFDF799FF012810D02648A16B8863CA
:1032000000BF00214020015500BFA06BFDF742FF29
:10321000002837D0A06B816B884733E0204600F050
:1032200073FB2FE0E06B002829D0122D01D0222D56
:1032300025D1206800680121C9030840884204D1D3
:1032400020680068884321680860E06BFDF76CFF28
:10325000012810D00F48E16B886300BF0021402097
:10326000015500BFE06BFDF715FF00280AD0E06BA9
:10327000816B884706E0204600F046FB02E02046CE
:1032800000F042FBF8BD00000000FFFF1537010809
:1032900003800000952F010870B504460D461A48BA
:1032A000E0620020206320214120015500214220BE
:1032B000015500206063042028408008002813D0B6
:1032C0002068406A616A0870606A401C6062208DF4
:1032D000002809D0208D401E2085608D401E60850D
:1032E000606C04210843606408492046FFF76AFEC9
:1032F00010202168C86100BF00214020015500BF97
:103300002046FEF775F970BD0000FFFF0380000046
:10331000F3B581B00446206800680090029EE76A19
:103320004120055D20202168C861212D01D0292D73
:1033300006D17F492046FFF745FE2120206314E097
:10334000222D01D02A2D07D17949491C2046FFF7AB
:1033500039FE2220206308E0282D06D17449891CFB
:103360002046FFF72FFE00202063206840680121DF
:10337000C903084321684860206840686D490840D7
:10338000216848602046FFF757FE01218903009815
:103390000840800B00280CD0206800688843216812
:1033A0000860A06B002817D0A06B0068406860859B
:1033B00012E00121C90300980840C00B00280BD07F
:1033C00020680068884321680860E06B002803D00B
:1033D000E06B006840686085042030408008002869
:1033E00013D004213046884306462068406A616A4B
:1033F0000870606A401C6062208D002805D0208D16
:10340000401E2085608D401E6085608D002803D0A1
:10341000606C0421084360641020304000090028DB
:1034200039D01021009808400009002833D0608D61
:10343000002820D14120005D282807D14805874277
:1034400004D131462046FFF727FF24E04120005DEC
:1034500029280CD13848874209D010202168C8613A
:103460002046FFF7E9FD204600F068F813E0102041
:103470002168C8610FE010202168C861606C0421D8
:1034800008436064002F02D08805874203D1616C35
:103490002046FFF753FE00214220015500206063C3
:1034A000606C00280CD0616C2046FFF747FE41207D
:1034B000005D28283AD131462046FFF7EDFE35E081
:1034C000E06A1D49884212D0204600F037F81A48B9
:1034D000E0622021412001550020206300BF00212F
:1034E0004020015500BF2046FEF782F81EE0412033
:1034F000005D22280DD120214120015500202063AC
:1035000000BF00214020015500BF2046FEF771F8A2
:103510000CE02021412001550020206300BF002144
:103520004020015500BF2046FEF764F8FEBD0000B4
:103530000180000000E800FE0000FFFF70B50446B7
:1035400020680568002142200155012080032840A1
:10355000800B002807D02068006801218903884378
:10356000216808600CE00120C0032840C00B00283F
:1035700006D0206800680121C903884321680860DB
:103580004120005D292811D1282141200155212009
:10359000206301212046FFF715FD00BF00214020D8
:1035A000015500BF2046FEF725F814E04120005DDC
:1035B0002A2810D1282141200155222020630221F0
:1035C0002046FFF7FFFC00BF00214020015500BF4F
:1035D0002046FEF70EF870BD10B5012280210C4880
:1035E000FDF7A1FFFFF7E9FC012240210848FDF7A4
:1035F0009AFFFFF7E2FC80210548FDF78BFF0446A8
:10360000002240210248FDF78EFF204610BD000039
:103610000004005070B500240025012280211448C8
:10362000FDF781FF00BF19E06006040E0022402173
:103630000F48FDF778FFFFF7C0FC012240210C483E
:10364000FDF771FFFFF7B9FC80210948FDF762FF24
:10365000002801D001200443681CC5B2082DE3DB1B
:10366000002240210248FDF75EFF204670BD0000A9
:103670000004005010B50446002C05D00122802122
:103680000B48FDF750FF04E0002280210848FDF7B9
:103690004AFFFFF792FC012240210548FDF743FF56
:1036A000FFF78BFC002240210148FDF73CFF10BDD5
:1036B0000004005070B50446002500BF20E0002241
:1036C00040211348FDF72FFF80202040002805D01F
:1036D000012280210E48FDF726FF04E00022802110
:1036E0000B48FDF720FFFFF768FC01224021084846
:1036F000FDF719FFFFF761FC6006040E681CC5B2F8
:10370000082DDCDB002240210148FDF70CFF70BDD5
:1037100000040050F7B504461646E56A019F00BF55
:103720004020005D012801D10220FEBD0121402082
:10373000015500BF202038404009002809D0202032
:1037400030404009002804D039462046FFF7E0FD0C
:1037500096E010203840000900283AD01020304070
:103760000009002835D0608D002821D14120005D5E
:10377000282808D101204006854204D13946204638
:10378000FFF78AFD7CE04120005D29280CD14048EC
:10379000854209D010202168C8612046FFF74CFC03
:1037A0002046FFF7CBFE6BE010202168C86167E080
:1037B00010202168C861606C042108436064002DFA
:1037C00002D0880585425BD1616C2046FFF7B6FCCC
:1037D00056E004203840800800281ED004203040E5
:1037E0008008002819D0608D00280CD02068406A1D
:1037F000616A0870606A401C6062208D401E2085EE
:10380000608D401E6085608D002839D1204885423A
:1038100036D02046FFF792FE32E008203840C0083C
:10382000002809D008203040C008002804D03946BC
:103830002046FFF71AFC23E0022038404008002809
:103840001ED0022030404008002819D0608D00288A
:103850000DD0606A007821688862606A401C6062EE
:10386000608D401E6085208D401E208508E001206F
:103870000006854201D0002D02D12046FFF75EFEF2
:1038800000BF00214020015500BF00204DE700008F
:103890000000FFFF10B5012280210B48FDF743FE19
:1038A000012240210848FDF73EFEFFF786FB00227B
:1038B00080210548FDF737FEFFF77FFB00224021FE
:1038C0000148FDF730FE10BD0004005010B5002285
:1038D00040210C48FDF727FE002280210948FDF712
:1038E00022FEFFF76AFB012240210648FDF71BFE7E
:1038F000FFF763FB012280210248FDF714FEFFF76A
:103900005CFB10BD0004005010B504464120005D72
:1039100060280DD12021412001550020206300BFE7
:1039200000214020015500BF2046FDF709FE09E0B7
:103930000020206300BF00214020015500BF204629
:10394000FDF755FE10BD000010B50448FDF792FECE
:10395000002801D0FCF77EFF10BD0000FC00002015
:1039600010B586B00020039003A804A905AA084B4F
:1039700000920191029000221146064805F0B4FC25
:103980000446002C02D0204606B010BD2046FBE7BE
:10399000400700201807002010B50121044802F05C
:1039A000F0FC0446002C01D0204610BD2046FCE768
:1039B0008804002038B56A460549064805F0DEFC53
:1039C0000446002C01D0204638BD2046FCE700000C
:1039D000400700201807002010B58AB0142105A860
:1039E000FCF7C5FB00BF2948406B0121084327496C
:1039F00048630846406BC007C00F049000BF00BF7B
:103A00000120C003059001200690022008900020AC
:103A1000079005A905200007FDF790FC01F06AFB5F
:103A200000F020FA02211A4802F09BFC0446002C08
:103A300002D020460AB010BD0220FDF769FCFF202D
:103A400001301449144B019000930291039000231C
:103A50000F4A5C21114804F011F80446002C01D0F3
:103A60002046E7E701210D484030817640380C4977
:103A70000860024614210B4805F04AFF0446002C5A
:103A800001D02046D6E70020D4E700000010024015
:103A900062000020F8050020F804002088040020BF
:103AA000240000201807002010B5054802F0ACFCE7
:103AB0000446002C01D0204610BD2046FCE7000043
:103AC0008804002053B589B006460A98002802D120
:103AD00021200BB050BDA22168460173467310220D
:103AE0000E300A99FCF72AFB00200090152303AA48
:103AF000014601900B4805F0B3FF0446002C0AD1A3
:103B0000022D08DBA81E385C902803D1681E385CA3
:103B1000002800D00624002C01D02046D9E72046FA
:103B2000D7E700000407002070B586B005460E46B2
:103B3000002E02D1212006B070BDA221684601747A
:103B40004574042231461230FCF7F8FA0220FDF7E2
:103B5000DFFB802207211348006805F068FB7D2207
:103B600012010D210F48006805F061FB02A803A9AE
:103B7000062304AA0091019000210B4805F0D9FB0F
:103B80000446002C0BD168460089012806D1039811
:103B900000780A2802D1FDF7BBFB00E0062420468E
:103BA000C9E70000240000201807002010B586B0E7
:103BB0000E4C0F480F49104A104B1B78019302928C
:103BC000039104900E4800900E4803780E48027846
:103BD0000E4801780E4806F0CDFD0446002C02D0B8
:103BE000204606B010BD2046FBE70000FFFF0000A6
:103BF000550000204C0000204B0000204A0000200F
:103C00004200002041000020400000203F00002032
:103C1000E404002010B50421044802F0B2FB04467D
:103C2000002C01D0204610BD2046FCE7880400206F
:103C300010B5064C064A0749074806F008FE044638
:103C4000002C01D0204610BD2046FCE7FFFF0000FD
:103C5000540000204C000020E404002010B58AB07D
:103C6000142105A8FCF783FA00BF2E48406B012100
:103C700008432C4948630846406BC007C00F0490B6
:103C800000BF00BF0120C003059001200690022064
:103C900008900020079005A905200007FDF74EFBBE
:103CA00001F028FA00F0DEF802211F4802F059FB6B
:103CB0000446002C02D020460AB010BD0220FDF7B9
:103CC00027FBFF2001301949194B01900093029105
:103CD00003900023144A5C21164803F0CFFE0446EB
:103CE000002C01D02046E7E70121124840308176C0
:103CF00040381149086002461421104807F02CF89A
:103D00000446002C01D02046D6E70C4A08210C4876
:103D100002F0CAF90446002C01D02046CCE700206E
:103D2000CAE700000010024062000020F8050020F1
:103D3000F80400208804002024000020E40400206F
:103D40003000002010B500200A49087022200A49DE
:103D50000870FF20094908700020094908700948C7
:103D600002F052FB0446002C01D0204610BD204634
:103D7000FCE700003F000020400000204100002040
:103D80004A00002088040020F8B506460C46002CA6
:103D900001D12120F8BD04202346324601210090A4
:103DA000044802F06FFA0546002D01D02846F1E7DD
:103DB0002846EFE73000002000B587B0142102A8A4
:103DC000FCF7D5F900BF2248406B01210843204988
:103DD00048630846406BC007C00F019000BF00BF9A
:103DE00000BF0846406B0221084319494863084652
:103DF000406B02210840019000BF00BF02200290EA
:103E000001200390002004900220059002A90520C3
:103E10000007FDF793FA0420029001200390002090
:103E200004900220059002A905200007FDF786FAFC
:103E300001208002029001200390002004900220C3
:103E4000059002A90348FDF779FA07B000BD00000C
:103E50000010024000040050014908707047000043
:103E6000A000002010B50122D10305200007FDF7B6
:103E70005AFB0A2002F00AF800220121C90305209A
:103E80000007FDF750FB10BD10B500220121C9034A
:103E900005200007FDF747FB10BD0000FEB50746F3
:103EA0000D46114802900320019001A800903A4667
:103EB00001210E48029B02F0D3F80646002E01D0E5
:103EC000F0B2FEBD002D0AD0002405E006480168CE
:103ED000601C085C2855641C042CF7DB01E02120E1
:103EE000EFE7F0B2EDE70000800000203000002096
:103EF000F0B58BB000200A9009900026089007903A
:103F000006900A980A90099809906846017E017601
:103F1000FE48807A002801D10BB0F0BDFB48407A02
:103F2000022800DAF8E7F948407A801E81B2F748A3
:103F3000BF3800F0CDFE0890F448407A801EF34967
:103F4000BF39085C0202F148407A401E085C101834
:103F500080B207900799089888427DD1EB48C03815
:103F60008078022804D1E949C039087801F040FE80
:103F7000EC20FCF7B5FAE549C03949788842ECD124
:103F8000E248C0388078102867D008DC01280DD0BE
:103F9000032813D005287BD006287AD188E036285C
:103FA00078D0372877D03828F7D183E1042000F083
:103FB0006FFC0121D548C030C174B9E1D348C03885
:103FC000C0780002D149C039097908430590CF482B
:103FD000C03840790002CD49C03989790843074685
:103FE0000598059000BFC948C0380679002500BF74
:103FF0002E2E03DBAA2001F0FBFD57E0C448007819
:10400000012806D1C1490B31304601F017F80546A9
:1040100005E0BE490B313046FFF740FF0546002D55
:104020003AD11422BB496846FCF788F8B748C03833
:10403000017868460170B548C03801796846C1709A
:10404000B248C17A68460171B0480B304178684681
:104050004171AE480B3001E06BE17AE0817868464F
:104060008171AA480B30C1786846C171082100F0FF
:104070002FFE04462046E117090E091809040A0E0E
:1040800069460A724C720A21684601F0A3FD08E0F5
:104090000DE041E1EEE0FDE004219C480B3001F031
:1040A00099FDC82199480B30FCF761F840E13FE1E8
:1040B0009648C038067996480078012824D1282EE1
:1040C00001DA042E03DAAA2001F092FD40E0002478
:1040D0000025002700BF8D4CBB3C354621462846B5
:1040E000FFF722FD07460520FDF712F904212046BF
:1040F000FCF73DF82146284600F0A0FF07460A21BC
:10410000201F01F067FD23E0282E03DBAA2001F029
:104110006FFD1DE00024002500BF7C4CBB3C214608
:10412000304600F0BBFB04212046FCF720F8214676
:104130003046FFF7B3FE0546002D03D0AB2001F05B
:1041400057FD04E00A217148BF3801F043FD00BF6C
:10415000EEE06E48C038C07800026C49C039097979
:10416000084305906948C038407900026749C03962
:1041700089790843049000256448C03884790598FB
:104180000590049804906148C0380579604800782B
:10419000012839D1282D01DA042D03DAAA2001F0F3
:1041A00027FD66E05948B938039000270BE0BB00B3
:1041B000039A9918EA19D0B2FFF7B6FC0520FDF76B
:1041C000A7F8781CC7B2E117890F09198910B942FD
:1041D000EDDC002708E0BB00039A9918EA19D0B279
:1041E00000F02CFF781CC7B2E117890F091989105C
:1041F000B942F0DC4548C03880790146083143486F
:10420000BF3801F0E7FC34E0282D03DBAA2001F0E1
:10421000EFFC2EE03D48B9380390002708E0BB00D2
:10422000039A9918EA19D0B200F038FB781CC7B28B
:10423000E117890F09198910B942F0DC002708E05D
:10424000BB00039A9918EA19D0B2FFF727FE781C31
:10425000C7B2E117890F09198910B942F0DC2B4860
:10426000C0388079014608312848BF3801F0B2FCD7
:1042700000BF5DE00120264908700121A120FCF764
:1042800071F9002000F004FB08212048BF3801F03C
:10429000A1FC4DE000201E4908700021A120FCF780
:1042A00061F9002000F0F4FA08211848BF3801F045
:1042B00091FC3DE00024EC20FCF712F91349C039D1
:1042C0004978884220D1002005E01049BF390A5CB6
:1042D000CA310A54401C0628F7DB0D4801780B4808
:1042E0000B300171062100F0F3FC04462046E11773
:1042F000090E091809040A0E04490B318A7108468F
:10430000C471082101F066FC12E00000130A0020CD
:104310003D00002030B8010801200A4908700A4811
:10432000807880210843074948700120887000BFC9
:1043300000BF01F043FC00210348C030417281728C
:1043400000BFE9E55308002053090020002004E0E5
:104350000021084A1154411C48B20428F8DB00200F
:1043600005E000214200044B9952411C48B2042848
:10437000F7DB7047120000200A00002000200AE04E
:104380004100134A515A134A914202DD0021124A58
:104390001154411C48B20428F2DB002014E00E49FD
:1043A000095C012907D14100094A515A491C4200C0
:1043B000074B995206E00849095C002902D14200E6
:1043C000034B9952411C48B20428E8DB70470000B7
:1043D0000A00002060EA000012000020042801DA30
:1043E000014A1154704700001200002010B50D481A
:1043F00004680D492046FBF777FE0C490860084623
:1044000000687D21C90048430949086007480068E1
:10441000002806D10120054908607D20C00004491C
:10442000086010BD9C00002040420F0018000020D2
:104430001C00002010B539480078002806D001285B
:1044400007D0022808D0032838D11EE000F04EFA29
:1044500035E000F041FA32E031480088401C304934
:10446000088008460088FF21F531884201D100F01C
:104470003DFA2B4800887D21C900884204DB00F00A
:104480002BFA00202649088019E025480088401CA6
:1044900023490880084600887D210901884201D10E
:1044A00000F024FA1E4800887D214901884204DB7F
:1044B00000F012FA00201A49088000E000BF00BF97
:1044C00018480078002806D0012805D0022804D01A
:1044D000032820D110E01FE01EE013480088401C94
:1044E00011490880084600887D21C900884202DB06
:1044F00000200D4908800FE00B480088401C0A4945
:104500000880084600887D214901884202DB00209E
:104510000549088000E000BF00BF10BDA0000020DA
:10452000A2000020A1000020A4000020FEB5CE4D76
:10453000CE48007804286AD008DC00280FD0012873
:1045400013D002282DD003287ED144E005287CD04A
:1045500006287BD007287AD05028F5D16FE1FFF7E5
:1045600093FC012000F094F97BE10120FFF774FC3B
:10457000BF480078002803D1FFF770FB054606E02E
:10458000BB480078012802D1FFF726FA0546002D26
:1045900003D1022000F07CF902E0502000F078F90D
:1045A0005FE1B14DB2480078002803D1FFF7CAFBA4
:1045B000054606E0AE480078012802D1FFF774FAFC
:1045C0000546002D03D1032000F062F902E05020DF
:1045D00000F05EF945E1A44DFFF7B6F9A448007874
:1045E000002803D1FFF716FB054606E0A048007837
:1045F000012802D1FFF7D0F90546002D03D1042090
:1046000000F046F902E0502000F042F929E1964D11
:1046100097480078002803D1FFF7C8FA054606E05E
:1046200093480078012802D1FFF79AF90546002D3A
:1046300012D1052000F02CF901210020FFF7CEFE59
:104640000220FFF709FC03E002E10CE034E0D4E0D3
:1046500001208849087005E0502000F019F9002079
:1046600084490870FDE0804D83480021016041606D
:1046700014218248FBF77BFD0A20FCF749FE00214C
:104680000846FFF7ABFE7A480078002803D1FFF711
:10469000CFFA054606E076480078012802D1FFF7F8
:1046A00089F90546002D03D1062000F0F1F802E05B
:1046B000502000F0EDF8D4E06B4D6D4800780028F4
:1046C0000AD1002405E06C48005D6D490855601C66
:1046D000C4B2082CF7D30DE065480078012809D151
:1046E000002405E06548005D65490855601CC4B2BA
:1046F0000A2CF7DB6348C07C012877D10021614890
:10470000C1745B480078012835D15F4A07CA6B46FF
:1047100007C35E48017868460170584801786846CA
:104720008170564841786846C1705448817868461F
:1047300001715248C1786846417150480179684614
:1047400081714E4841796846C1714C48817968460B
:104750000172092100F0BCFA06463046F117090E35
:10476000091809040A0E69464A728E720B216846BE
:1047700001F030FA3AE0444A0C3207CA6B4607C3EC
:1047800042480178684601703B480178684681706C
:10479000394841786846C170374881786846017168
:1047A0003548C1786846417133480179684681715E
:1047B000314841796846C1712F4881796846017254
:1047C0002D48C179684641720A2100F081FA0646F7
:1047D0003046F117090E091809040A0E69468A7253
:1047E000CE720C21684601F0F5F900BF072000F0F9
:1047F0004FF80220FFF730FB33E01B4D1C480078D8
:10480000002803D1FFF7D2F905460DE018480078DB
:10481000012809D1002000900190029069460120F2
:1048200000F00CFC054600BF002D03D0502000F026
:104830002FF803E0FFF788F8FFF75AFB11E0FFF7C6
:1048400011FB012000F024F80120FFF705FB08E030
:10485000012000F01DF8FFF705FB0120FFF7FCFA2F
:1048600000BF00BFFEBD0000FFFF000038000020B9
:104870003D000020200000204C00002040070020C8
:1048800028000020D30A0020ACB4010853090020FE
:1048900001490870704700003800002070B50546D7
:1048A0000E460C480078002805D131462846FFF70F
:1048B0006BFA044608E007480078012804D1314625
:1048C0002846FFF7FFF80446002C00D170BD00BF5A
:1048D000FCE700003D00002010B500220121890204
:1048E0000148FCF720FE10BD0004005010B5012265
:1048F00091020248FCF717FE10BD000000040050B2
:1049000010B50122022105200007FCF70CFE10BDA6
:1049100010B50022022105200007FCF704FE10BD9F
:1049200010B50022042105200007FCF7FCFD10BD96
:1049300010B50122042105200007FCF7F4FD10BD8D
:1049400000B587B0142102A8FBF711FC00BF334863
:10495000406B01210843314948630846406BC0075A
:10496000C00F019000BF00BF00BF0846406B02218E
:1049700008432A4948630846406B022108400190D9
:1049800000BF00BF00BF2548406B042108432349F6
:1049900048630846406B04210840019000BF00BFF7
:1049A00000221F4905200007FCF7BDFD00221D491C
:1049B0001D48FCF7B8FD002240211C48FCF7B3FD60
:1049C000174802900120039000200490059002A94E
:1049D00005200007FCF7B2FC12480290012003906A
:1049E00000200490059002A90F48FCF7A7FC10488E
:1049F000029000200390049002A90B48FCF79EFC53
:104A0000402002900120039000200490059002A90C
:104A10000648FCF793FC07B000BD00000010024000
:104A200006800000023C0000000400500008005016
:104A300004C0000010B50848084908600320486019
:104A40007D21C9000548C1608160FCF7D5FD0028C3
:104A500001D0FBF7FFFE10BD00300040FC0000203D
:104A600000B589B00020059006900790089002904C
:104A70000390049000BF244800680121C903084343
:104A800021490860084600680121C90308400190D7
:104A900000BF00BF1D481E4908601E484860102125
:104AA0001B488160FF21F431C160FF2101310161A8
:104AB00080218161FDF758FC002801D0FBF7CAFE78
:104AC00001200003059005A91148FDF7FFFC00280F
:104AD00001D0FBF7BFFE00200290049002A90C4811
:104AE000FDF7F6FB002801D0FBF7B4FE00220221FF
:104AF0001320FCF74DFE1320FCF738FE0448FDF7A9
:104B0000A9FC09B000BD0000401002400020004098
:104B1000A4010020FFF9000000B587B00020039039
:104B20000490059006900090019002901D481E4947
:104B300008601E48486010211B488160FF21F43145
:104B4000C160FF210131016100214161802181614A
:104B5000FDF70AFC002801D0FBF77CFE01200003D2
:104B6000039003A91048FDF7B1FC002801D0FBF722
:104B700071FE002000900190029069460A48FDF7FE
:104B8000A7FB002801D0FBF765FE002202210D20C3
:104B9000FCF7FEFD0D20FCF7E9FD0348FDF75AFC8C
:104BA00007B000BD002C01400C010020FFF90000FF
:104BB00000B587B000200390049005900690009007
:104BC000019002901B481C4908603F20486010215A
:104BD000194881601949C160FF21013101618021BB
:104BE0008161FDF7C1FB002801D0FBF733FE0120F6
:104BF0000003039003A91048FDF768FC002801D0CA
:104C0000FBF728FE00200090029069460A48FDF755
:104C10005FFB002801D0FBF71DFE002202211020BF
:104C2000FCF7B6FD1020FCF7A1FD0348FDF712FCD0
:104C300007B000BD0004004058010020E703000059
:104C400010B5044620482149086008464460002108
:104C50008160C16001610C21416100218161C161FC
:104C6000016241620020194988620846FDF76BFF26
:104C7000002801D0FBF7EEFD00211448FDF70EFDE2
:104C8000002801D0FBF7E6FD00211048FDF7D6FC17
:104C9000002801D0FBF7DEFD0C48FDF7A3FC00283F
:104CA00001D0FBF7D7FD09480068006820210843C0
:104CB0000649096808600548006800681021084333
:104CC00002490968086010BD00380140F001002069
:104CD00030B502460B460C48002112E0555C684096
:104CE00000240AE0C507ED0F002D03D04010074D4A
:104CF000684000E04010651CACB2082CF2DB4D1C93
:104D0000A9B29942EADB30BDFFFF000001A000001C
:104D10003EB5C04CC048007804287CD008DC002890
:104D20000FD0012818D0022836D003286BD151E0CB
:104D3000052869D0062868D0072867D05028F5D103
:104D40005AE1FFF7A1F80020B4490870B248007892
:104D5000401CB14908705BE1B1480078002803D1DC
:104D6000FEF77CFF044606E0AD480078012802D13A
:104D7000FEF732FE0446FEF7E7FD0020A749087063
:104D8000002C05D1A4480078401CA349087002E01B
:104D90005020A14908703BE19E4CA14800780028B2
:104DA00003D1FEF7CFFF044606E09D4800780128B6
:104DB00002D1FEF779FE0446FEF7C6FD002C05D1B0
:104DC00095480078401C9449087002E050209249B0
:104DD00008701DE18F4C92480078002803D1FEF73F
:104DE00019FF044606E08E480078012802D1FEF73C
:104DF000D3FD0446002C0AD187480078401C864920
:104E0000087007E007E0FDE029E04FE0D3E0502024
:104E100081490870FCE07F4C81480078002803D16C
:104E2000FEF7C4FE044606E07D480078012802D162
:104E3000FEF796FD0446FEF787FD002C08D1764864
:104E40000078401C7449087001207449087005E01E
:104E5000502071490870002070490870D8E06D4CEE
:104E600008217048FBF783F914216F48FBF77FF99D
:104E70000A20FCF74DFA6A480078002803D1FEF7B3
:104E8000D7FE044606E066480078012802D1FEF706
:104E900091FD0446002C05D15F480078401C5E4916
:104EA000087002E050205C490870B1E0594CFEF7F0
:104EB0004BFD5E48C07C012877D100215B48C1745E
:104EC00057480078012835D1594A07CA6B4607C3AD
:104ED00058480178684601705348017868468170E7
:104EE000514841786846C1704F48817868460171E1
:104EF0004D48C178684641714B48017968468171D7
:104F0000494841796846C1714748817968460172CC
:104F10000921FFF7DDFE05462846E917090E0918A5
:104F200009040A0E69464A728D720B21684600F028
:104F300051FE3AE03E4A0C3207CA6B4607C33D4871
:104F400001786846017037480178684681703548B5
:104F500041786846C17033488178684601713148AC
:104F6000C178684641712F480179684681712D48A2
:104F700041796846C1712B48817968460172294898
:104F8000C179684641720A21FFF7A2FE054628460C
:104F9000E917090E091809040A0E69468A72CD72CA
:104FA0000C21684600F016FE00BF1B480078401C2C
:104FB000194908702CE0174C0A20FCF7A9F9184889
:104FC000007801280AD1002000900190029000246E
:104FD0006946012000F032F8044602E0FEF7E6FDE3
:104FE0000446002C03D050200B49087003E0FEF764
:104FF000ABFCFBF733FC0BE0FEF734FF0020064967
:10500000087005E0FEF72EFF00200349087000BF7E
:1050100000BF3EBDFFFF00008400002020000020F4
:105020003D0000204C00002040070020D30A002053
:10503000CCB401085309002000BFFEE770B586B06C
:1050400006460C46002C02D1212006B070BD30214E
:1050500068460175467503A804A9022305AA0091B4
:1050600001900021094804F064F90546002D09D19A
:1050700068468089102805D1042220460499FBF750
:105080005DF800E006252846DFE70000180700204D
:105090007047000010B5012211030848FCF743FADD
:1050A0000022012149030548FCF73DFA00220121B5
:1050B000C9020248FCF737FA10BD00000004005096
:1050C00038B504460D4668460470002201210903E4
:1050D0000748FCF728FA684600F0B6FD01221103E4
:1050E0000348FCF720FA684640786870002038BD15
:1050F0000004005010B500F01BF8FFF7CBFF10BD07
:1051000038B504460D4668460470457000220121FA
:1051100009030648FCF707FA684600F0F3FD012290
:1051200011030248FCF7FFF9002038BD00040050CD
:1051300000B587B0142102A8FBF719F800BF20487A
:10514000406B022108431E4948630846406B022118
:105150000840019000BF00BFC802029001200390E8
:10516000002004900220059002A91648FCF7E6F8FA
:105170000520C0020290012003900020049002202C
:10518000059002A90F48FCF7D9F80120800302908E
:1051900000200390012004900220059002A90948F4
:1051A000FCF7CCF8012211030648FCF7BCF90022F9
:1051B000012149030348FCF7B6F907B000BD000020
:1051C000001002400004005070470000FFB5044684
:1051D0000D4614A047680668806802970196039000
:1051E0000923632000900022002100BF13E000216A
:1051F00008E05018205C01AE765CB04200D003E0BD
:10520000481CC1B29942F4DB00BF994201D100921F
:1052100004E0501CC2B2E81A9042E8DA00BF0098DD
:1052200004B0F0BDAA5512233445AD55AA000000C4
:1052300000B587B0142102A8FAF799FF00BF124801
:10524000406B02210843104948630846406B022125
:105250000840019000BF00BFC020029011200390C1
:10526000002004900220059002A90848FCF766F887
:10527000012240210548FCF756F90122802103480C
:10528000FCF751F907B000BD0010024000040050C7
:1052900010B5FCF7F7F910BD00B591B0342104A8A2
:1052A000FAF765FF00200090019002900390012022
:1052B0004002FCF777FA0A200490FF2001300790A3
:1052C000002008904020099001200A9002200B90B5
:1052D00002210C9100210D910C210E9101040F91DE
:1052E0004107109104A8FCF701FD002801D0FBF74D
:1052F000B1FA072000900220019000200290039054
:1053000002216846FCF77CFB002801D0FBF7A2FADB
:1053100011B000BD70470000104800680069C00768
:10532000C00F012148404840002815D00B480068B4
:10533000C06808404840484000280DD0C81E0749B2
:1053400009680861064800880649884204DA04486A
:105350000088401C0249088070470000A40100201A
:1053600008000020FFFF00000F4800680069C00728
:10537000C00F012148404840002814D00A48006866
:10538000C06808404840484000280CD0C81E064964
:105390000968086105480078FF2804DA03480078A6
:1053A000401C0249087070470C01002006000020D4
:1053B00010B50F4800680069C007C00F01214840C0
:1053C0004840002813D00A480068C0680840484098
:1053D000484000280BD0C81E054909680861FEF73F
:1053E000CDFF0448007D002801D1FFF723F810BD50
:1053F00058010020D30A002010B50268244B9842BF
:1054000002D0244B984205D170241346A3431A4678
:105410004B681A431E4B98420ED01E4B98420BD03D
:105420001D4B984208D01D4B984205D01C4B98420A
:1054300002D01C4B984206D1032424021346A343F6
:105440001A46CB681A4380241346A3434C6923436E
:105450001A4602608B68C3620B6883620C4B9842E9
:1054600008D00E4B984205D00D4B984202D00D4B00
:10547000984201D10B690363012343610369DB0790
:10548000DB0F002B03D003695B085B00036110BDD9
:10549000002C01400004004000200040004001407A
:1054A000004401400048014070B50C468168FF2669
:1054B00036020D46B54329461D02154325432943AF
:1054C000816070BD0A468168034B1940072313436E
:1054D00019438160704700008FFFCFFF70B50B4606
:1054E0001446026A056A6D086D0005628169F0263E
:1054F0000D46B5432946250129430A261546B543DD
:105500002A4615461D432A468161026270BD70B568
:105510000B461446026A056A1026B5430562816986
:105520000F2636030D46B543294625032943A026F9
:105530001546B5432A461D012A438161026270BDAA
:10554000F8B50446606E002805D101216A20015398
:105550006820015322E00827082200922068806812
:10556000072149060840450E20688068460F0C4A0E
:10557000915D0C4A935D009A53431846FAF7CAFDB1
:1055800081B26A200153064A515D064A525D7A4350
:105590001046FAF7BFFD81B268200153F8BD000044
:1055A00027B501081FB501080822816A11400829A2
:1055B00007D10168496812039143826B1143026865
:1055C0005160018DC907C90F002908D001684968D9
:1055D000012252049143C26A1143026851600222BF
:1055E000816A1140022907D101684968D2039143B9
:1055F000026B1143026851600422816A1140042940
:1056000007D10168496812049143426B1143026853
:1056100051601022816A1140102907D10168896800
:1056200012029143C26B1143026891602022816A89
:105630001140202907D10168896812029143026C48
:105640001143026891604022816A1140402915D1BE
:105650000168496892039143426C114302685160AA
:1056600001221205416C914208D101684968032268
:1056700052059143826C1143026851608022816A15
:105680001140802907D10168496812039143C26C17
:105690001143026851607047F8B50446002190201C
:1056A0000151FBF747FF05462068006808210840C4
:1056B000082824D138482B4600228904009020462F
:1056C00000F0EEF900281AD000BF00F0C9FB064632
:1056D000012000F0D7FB2068006880218843216802
:1056E0000860304600F0CEFB00BF20218820015129
:1056F00000BF00218420015500BF0320F8BD2068B1
:10570000006804210840042836D123482B46002293
:1057100009050090204600F0C3F900282CD000BFF6
:1057200000F09EFB0646012000F0ACFB20680068FC
:10573000FF212131884321680860304600F0A2FB38
:1057400000BF00BF00F08CFB0646012000F09AFB72
:10575000206880684008400021688860304600F07A
:1057600091FB00BF20218C20015100BF002184202B
:10577000015500BF0320C1E72021882001518C2062
:1057800001510020E066206700BF00218420015500
:1057900000BF0020B2E70000FFFFFF0170B5054623
:1057A000AC6A00215E200153562001532046FCF7CD
:1057B000A6FF70BD70B5044600BF00F051FB054662
:1057C000012000F05FFB20680068FF212131884341
:1057D00021680860284600F055FB00BF00BF00F0BC
:1057E0003FFB0546012000F04DFB20688068114911
:1057F000084021688860284600F044FB00BFE06E46
:10580000012810D100BF00F02BFB0546012000F05D
:1058100039FB206800681021884321680860284609
:1058200000F030FB00BF20218C2001510020E066F9
:10583000606770BDFEFFFFEF70B5044600BF00F06B
:105840000FFB0546012000F01DFB20680068402189
:10585000884321680860284600F014FB00BF20211F
:10586000882001510020A0672046FDF77CFB70BD19
:10587000F0B585B00446002001902169A068084376
:1058800061690843E16908430390206800687A4928
:105890000840039908432168086020684068032194
:1058A00009038843E168084321684860A0690390C0
:1058B000206A039908430390206880686F49084074
:1058C00003990843216888602068C06A00090001C4
:1058D000616A08432168C86200BF6949206888423C
:1058E00017D1684840698007800F002806D001283A
:1058F00008D0022804D0032808D105E0002507E0DD
:10590000022505E0042503E0082501E0102500BF7D
:1059100028E05D492068884217D15A4840690C2127
:105920000840002806D0042808D0082804D00C28F5
:1059300008D105E0002507E0022505E0042503E085
:10594000082501E0102500BF0CE05049206888427E
:1059500001D1002506E04E492068884201D100258A
:1059600000E0102500BF0121C903E069884241D150
:10597000002D06D0022D08D0042D08D0082D0DD101
:1059800009E0FCF72DF906460CE0424E0AE0FCF770
:105990003BF9064606E00126F60303E00026012057
:1059A000019000BF00BF002E5BD0606A40003A4A01
:1059B000115A3046FAF798FB4000616849084018D0
:1059C00000906168FAF790FB0746102F0FD3334819
:1059D00087420CD831480F38384002903807400FC2
:1059E00002990843029002982168C86039E00120BA
:1059F000019036E0002D06D0022D08D0042D08D0ED
:105A0000082D0DD109E0FCF7EBF806460CE0214E1D
:105A10000AE0FCF7F9F8064606E00126F60303E083
:105A200000260120019000BF00BF002E19D0606A3F
:105A30004000194A115A3046FAF756FB6168490886
:105A4000401800906168FAF74FFB0746102F06D305
:105A50001248874203D8B8B22168C86001E001202B
:105A6000019001216A2001536820015300206067E2
:105A7000A067019805B0F0BDF369FFCFFFF4FF11F7
:105A800000380140401002400044004000480040FF
:105A9000004C00400024F40000B50108FFFF0000A6
:105AA000FFB581B004460D4617460A9E46E0701CBD
:105AB000002843D0FBF73EFD0499401AB04201D8BC
:105AC000002E02D1032005B0F0BD2068006804213B
:105AD0000840002832D0802D30D0402D2ED02068B4
