:020000040800F2
:10000000100C0020F90B0008A9010008AB01000842
:10001000AF010008B3010008B701000800000000AC
:10002000000000000000000000000000BB0100080C
:10003000BD01000800000000BF010008C101000868
:10004000130C0008130C0008130C0008130C000814
:10005000130C0008130C0008130C0008130C000804
:10006000130C0008130C0008130C0008130C0008F4
:10007000130C0008130C0008130C0008130C0008E4
:10008000130C0008130C0008130C0008130C0008D4
:10009000130C0008130C0008130C0008130C0008C4
:1000A000130C0008130C0008130C0008130C0008B4
:1000B000130C0008FF030008130C0008130C0008C1
:1000C000130C0008130C0008130C0008130C000894
:1000D000130C0008F1050008130C0008130C0008AD
:1000E000130C0008130C0008130C0008130C000874
:1000F000130C0008130C0008130C0008130C000864
:10010000130C0008130C0008130C0008130C000853
:10011000130C0008130C0008130C0008130C000843
:10012000130C0008130C0008130C0008130C000833
:10013000DFF80CD002F0A0FD0048004745010008A0
:10014000100C002008B5002000904FF0006013490B
:1001500008604AF6AA20124908604FF4A06001F036
:10016000E1FA00F043FB41F61F4141F2873000F015
:1001700019F94FF4E13000F0D6F900F05BF900F026
:100180005EFB00F062FB00F077FB06E005480078BC
:10019000012802D1552000F0E5FAF7E708ED00E06C
:1001A0000030004034000020704700BFFEE700BF71
:1001B000FEE700BFFEE700BFFEE7704770477047ED
:1001C000704700000CB50020019000906C4800685A
:1001D00040F480306A49086000BF6948006800F454
:1001E000003000900198401C0190009818B90198C7
:1001F000B0F5A06FF1D16248006800F4003010B192
:100200000120009001E0002000900098012843D1D7
:100210005C48006840F010005A49086008460068D1
:1002200020F0030008600846006840F00200086003
:10023000534840685249486008464068486008464C
:10024000406840F4806048600846406820F47C10B4
:1002500048600846406840F4E81048600846006876
:1002600040F08070086000BF4548006800F00070F2
:100270000028F9D04248406820F003004049486017
:100280000846406840F00200486000BF3C484068B3
:1002900000F00C000828F9D10CBD10B5FFF792FF53
:1002A00010BD10B53648006840F0010034490860C0
:1002B00008464068344908403149486008460068AB
:1002C000324908402E4908600846006820F4802022
:1002D00008600846406820F4FE0048604FF41F00A4
:1002E0008860FFF7DAFF4FF000602949086010BD11
:1002F00010B5002100200022214B5B6803F00C01A7
:1003000021B1042906D0082928D107E0214B224C2D
:10031000236027E01F4B204C236023E0184B5B68D1
:1003200003F47010164B5B6803F48032022303EB76
:10033000904022B9194B4343174C23600DE0104BFA
:100340005B6803F4003323B1144B4343124C236026
:1003500003E0104B4343104C236003E00D4B0E4C65
:10036000236000BF00BF064B5B68C3F303130C4C54
:10037000E15C094B1B68CB40074C236010BD0000BB
:1003800000100240002002400000FFF8FFFFF6FED0
:1003900008ED00E000127A000000002000093D0096
:1003A000040000207FB505460C460121022000F024
:1003B0005EFFADF80850ADF804400020ADF80A002B
:1003C000ADF8060001A9194801F0CCFD0122114643
:1003D000164802F03EF91D208DF8000000208DF82F
:1003E000010003208DF8020001208DF8030068460B
:1003F00001F09DF901210D4802F010F97FBD10B503
:1004000001210A4802F0D3FB70B10121074802F034
:10041000DFFB07480078401C054908700846007853
:10042000C82801DDC820087010BD0000000400408D
:100430001400002010B56FF0040001F0C2F92E483E
:1004400000682E49B0FBF1F02D490870084600788D
:1004500000EB4001C1EBC0104FF6FF7101EAC00094
:100460002849088010BD0146254A12784A434FF0BA
:10047000E0235A6100229A611A46126942F0010291
:100480001A6100BF4FF0E022106900F001021AB1BA
:1004900000F48032002AF5D04FF0E022126922F0F9
:1004A00001024FF0E0231A6100229A617047014671
:1004B000144A12884A434FF0E0235A6100229A619D
:1004C0001A46126942F001021A6100BF4FF0E022A1
:1004D000106900F001021AB100F48032002AF5D050
:1004E0004FF0E022126922F001024FF0E0231A617E
:1004F00000229A61704700000000002000127A007C
:100500001600002018000020014600BF704700BF01
:10051000B34A128802F04002002AF9D0C2B2B04BAE
:100520001B1D1A80704710B586B00446012144F2A5
:10053000040000F08FFE4FF40070ADF814000320AB
:100540008DF8160018208DF8170005A9A54800F0B1
:10055000C5FB4FF48060ADF8140004208DF817003F
:1005600005A9A04800F0BAFB4FF40060ADF81400F4
:1005700003208DF8160010208DF8170005A9994862
:1005800000F0ACFB01940020ADF80800ADF80A00C3
:10059000ADF80C00ADF810000C20ADF80E0001A96C
:1005A0008F4800F0FEFE012240F225518C4800F0F9
:1005B00090FF012240F22441894800F08AFF012186
:1005C000874800F07AFF25208DF8000003208DF881
:1005D00001008DF8020001208DF80300684601F04B
:1005E000A6F84FF400617F4800F027FC06B010BD6C
:1005F00070B5002540F22551794801F04FF890B1CF
:10060000774800F0CBFFC4B27748B0F8D407B0F514
:10061000FA6F08D27449B1F8D407411C724AA2F8A3
:10062000D417111D0C5440F224416D4801F036F8E6
:1006300001280BD16A4800F0B1FFC5B200BF6A487B
:100640004088401C684948800120087070BD10B582
:100650004FF4FA616448001D02F0C4FA00206249B8
:10066000A1F8D40710BD2DE9F04105460E4606F26B
:10067000FF30870A002401F0E2F800BF04E005EB38
:10068000842001F021F9641CBC42F8D301F0E3F8A6
:10069000BDE8F0812DE9F04107460D46164601F010
:1006A000CEF800240EE0601CB04204D2295D285C24
:1006B00041EA002801E015F804803819414601F0AC
:1006C00006FAA41CB442EED301F0C5F8BDE8F081EF
:1006D0002DE9F04707460E4690461C464FF00009AC
:1006E000CA46002514B93846BDE8F087A64201D2B3
:1006F0000020F9E7B946C24600250AE009EB0500EB
:100700002246514602F079FA10B909EB0500EBE7F1
:100710006D1C301BA842F1D20020E5E710B502465F
:100720000B460024002100BF03E0505C204484B24B
:10073000491C9942F9D3E0B210BD70B505460C468C
:1007400000260CB9701E70BD611E2846FFF7E6FF3B
:100750000646601E285CB04201D10120F3E74FF04D
:10076000FF30F0E710B504464FF400611D4800F07B
:1007700062FB00BF80211A4800F07AFF0028F9D000
:100780002146174800F006FF00BF4021144800F042
:100790006FFF0028F9D04021114800F076FF4FF498
:1007A0000061104800F049FB10BD10B5044603E09D
:1007B00014F8010BFFF7D6FF20780028F8D110BD00
:1007C00070B504460D46002600BF05E014F8010B85
:1007D000FFF7C8FF701C86B2AE42F7DB70BD0000A9
:1007E00000380140000801403400002008B5002016
:1007F00000900121082000F02DFD2020ADF8000020
:1008000010208DF8030003208DF802006946184877
:1008100000F064FA0121084600F01CFD0121154892
:1008200000F02DFB1020ADF800008DF80300032030
:100830008DF8020069460E4800F050FA08BD10B568
:1008400010210B4800F0F7FA10BD10B52021084820
:1008500000F0F1FA10BD10B51021054800F0EDFAD6
:1008600010BD10B52021024800F0E7FA10BD0000CD
:10087000000C01400002300008B50121082000F002
:10088000E9FC4FF44070ADF8000014208DF803002F
:1008900003208DF802006946CE4800F01FFA4FF49D
:1008A0008071CC4800F0C7FA4FF40071C94800F0DD
:1008B000C2FA08BD10B50520FFF7D5FD10BD10B573
:1008C0004FF40071C34800F0B6FA4FF48071C1488C
:1008D00000F0B1FAFFF7EEFF4FF40071BD4800F0F1
:1008E000ACFAFFF7E7FF4FF48071BA4800F0A5FAC1
:1008F00010BD10B54FF48071B64800F09EFA4FF469
:100900000071B44800F099FAFFF7D4FF4FF48071FA
:10091000B04800F090FAFFF7CDFF4FF40071AD48FA
:1009200000F089FAFFF7C6FF10BD70B50446002538
:1009300000BF1FE04FF48071A64800F07EFA04F07B
:10094000800028B14FF40071A24800F074FA04E06E
:100950004FF400719F4800F070FAFFF7ABFF4FF4BF
:1009600080719C4800F067FAFFF7A4FF6006040E50
:10097000681CC5B2082DDDDB4FF48071954800F08E
:100980005CFA70BD70B5002400254FF400719148E9
:1009900000F051FA00BF19E06006040E4FF48071B8
:1009A0008C4800F04AFAFFF785FF4FF480718948C0
:1009B00000F041FAFFF77EFF4FF40071854800F028
:1009C00020FA08B144F00104681CC5B2082DE3DB2D
:1009D0004FF480717F4800F030FA204670BD10B5AA
:1009E0004FF400717B4800F026FAFFF763FF4FF4E5
:1009F0008071784800F01FFAFFF75CFF4FF4007138
:100A0000744800F0FEF904464FF48071714800F01C
:100A100014FA204610BD10B504462CB14FF40071F5
:100A20006C4800F008FA04E04FF40071694800F0E7
:100A300004FAFFF73FFF4FF48071664800F0FBF9BE
:100A4000FFF738FF4FF48071624800F0F6F910BDEF
:100A500010B50246C2F30223A02040EA430001F091
:100A60000104204310BD70B504460D460021204608
:100A7000FFF7EEFF0646FFF722FF3046FFF755FF70
:100A8000FFF7ADFFE0B2FFF750FFFFF7A8FF2846E2
:100A9000FFF74BFFFFF7A3FFFFF72BFF0A20FFF73E
:100AA00006FD70BD2DE9F04106460F4614460025AF
:100AB00000213046FFF7CCFF8046102C00DD1024CB
:100AC000FFF7FDFE4046FFF730FFFFF788FFF0B26B
:100AD000FFF72BFFFFF783FF002506E0785DFFF7A8
:100AE00024FFFFF77CFF681CC5B2A542F6DBFFF7C9
:100AF00000FF0A20FFF7DBFCBDE8F08170B504467B
:100B000000212046FFF7A4FF0546FFF7D8FE284640
:100B1000FFF70BFFFFF763FFE0B2FFF706FFFFF7FA
:100B20005EFFFFF7CCFE45F00100FFF7FEFEFFF78A
:100B300056FFFFF727FF0646FFF7DBFE304670BD86
:100B40002DE9F04106460F46154600213046FFF7D5
:100B50007FFF8046FFF7B3FE4046FFF7E6FEFFF754
:100B60003EFFF0B2FFF7E1FEFFF739FFFFF7A7FE08
:100B700048F00100FFF7D9FEFFF731FF00240EE037
:100B8000FFF700FF3855681EA04203DD0020FFF785
:100B900042FF02E00120FFF73EFF601C84B2AC423E
:100BA000EEDBFFF7A6FEBDE8F08170B500240CE097
:100BB00000212046FFF74CFF05462A46214606A0A5
:100BC00002F08CF804F5807084B2B4F5006FEFDBAE
:100BD00070BD0000000C01406D656D416464723DA4
:100BE0003078253033582C20646576416464723D3A
:100BF0003078253032580A000648804706480047BA
:100C0000FEE7FEE7FEE7FEE7FEE7FEE7FEE7FEE7BC
:100C1000FEE7FEE7A30200083101000810B5044614
:100C2000CC48844208D10121042000F02DFB002192
:100C3000042000F029FB46E0C748844208D1012186
:100C4000082000F021FB0021082000F01DFB3AE005
:100C5000C248844208D10121102000F015FB002178
:100C6000102000F011FB2EE0BD48844208D1012184
:100C7000202000F009FB0021202000F005FB22E0ED
:100C8000B848844208D10121402000F0FDFA00213B
:100C9000402000F0F9FA16E0B348844208D101215F
:100CA000802000F0F1FA0021802000F0EDFA0AE047
:100CB000AE48844207D10121801500F0E5FA0021F9
:100CC000A01500F0E1FA10BD10B50121084600F0B2
:100CD000DBFA0021012000F0D7FA10BD2DE9F04128
:100CE000024600250026002000230024002791F85A
:100CF00003C00CF00F0591F803C00CF0100CBCF110
:100D0000000F03D091F802C04CEA050591F800C02D
:100D1000BCF1000F31D0146800202BE04FF0010C23
:100D20000CFA00F3B1F800C00CEA03069E4220D191
:100D300083004FF00F0C0CFA03F7BC4305FA03FCD9
:100D40004CEA040491F803C0BCF1280F06D14FF01F
:100D5000010C0CFA00FCC2F814C00AE091F803C0C0
:100D6000BCF1480F05D14FF0010C0CFA00FCC2F8A1
:100D700010C0401C0828D1D31460B1F800C0BCF1E9
:100D8000FF0F34DD546800202EE000F1080C4FF016
:100D9000010808FA0CF3B1F800C00CEA03069E4201
:100DA00021D183004FF00F0C0CFA03F7BC4305FA76
:100DB00003FC4CEA040491F803C0BCF1280F05D1F0
:100DC00000F1080C08FA0CF8C2F8148091F803C07E
:100DD000BCF1480F07D100F1080C4FF0010808FAE8
:100DE0000CF8C2F81080401C0828CED35460BDE82F
:100DF000F0814FF6FF710180022181700421C170E2
:100E000070470246002093680B400BB1012000E0C0
:100E1000002070470146886880B270470246002073
:100E2000D3680B400BB1012000E000207047014661
:100E3000C86880B2704701617047416170470AB16C
:100E4000016100E041617047C16070474FF480323A
:100E50000A438261816182618269826970470246C8
:100E60000020434B18684FF68073184040EA021088
:100E700008433F4B186070473E49C8617047F0B562
:100E80000A46002300240021002500F00046B6F1A8
:100E9000004F02D1364EF16901E0354E7168C0F362
:100EA000034583B200F44016B6F5401F08D121F087
:100EB00070612F4E766826F070662D4F7E6012E0CE
:100EC00000F48016B6F5801F06D1032606FA05F455
:100ED000A14341F0706106E0460D360103FA06F6C3
:100EE000B14341F0706122B1460D360103FA06F6B6
:100EF000314300F00046B6F1004F02D11C4EF161C3
:100F000001E01B4E7160F0BD30B500228B071C0F55
:100F10000F2303FA04F2164B08338C1053F82430D5
:100F20009343134C08348D1044F8253023468C101D
:100F300053F824308C07240F00FA04F423430C4C9C
:100F400008348D1044F8253030BD0A49DC31086082
:100F50007047000000080140000C014000100140F3
:100F60000014014000180140001C01400020014015
:100F70000000014000002042DF48006840F001000E
:100F8000DD49086008464068DC490840DA494860A5
:100F900008460068DA490840D749086008460068F2
:100FA00020F4802008600846406820F4FE00486075
:100FB0004FF41F0088607047CF49096821F48031E1
:100FC000CD4A11601146096821F480211160B0F505
:100FD000803F03D0B0F5802F0ED106E0C6490968E6
:100FE00041F48031C44A116007E0C349096841F403
:100FF000A021C14A116000E000BF00BF704710B5DA
:1010000001460022002300204A11012A02D1BA4CD5
:10101000236806E0022A02D1B74C236A01E0B64CED
:10102000636A01F01F02012494401C400CB10120AE
:1010300000E0002010BD38B50020009000240025FD
:1010400000BF3120FFF7DBFF05460098401C0090F1
:101050000098B0F5A06F01D0002DF2D03120FFF73D
:10106000CEFF08B1012400E00024204638BD01462F
:101070000020A14A106820F0F80040EAC10010608A
:101080007047A04908607047024600209A4B586894
:1010900020F47C1042EA01031843974B58607047D4
:1010A00098490866704701460020934A506820F02E
:1010B00003000843506070478F48406800F00C0000
:1010C0007047014600208C4A506820F0F000084329
:1010D0005060704701460020874A506820F4E06065
:1010E00008435060704701460020834A506820F44E
:1010F000605040EAC1005060704729B17E4A527A80
:1011000002437D4B5A7204E07B4A527A82437A4B07
:101110005A7270477B49D8310860704701460020F9
:10112000754A506820F440400843506070470021E1
:10113000714A20321170704A82F82010012802D0C2
:1011400004280AD104E001216B4A2032117005E025
:101150000521694A2032117000E000BF00BF7047CE
:101160006949086070476449096A0143624A11622B
:101170007047654944390860704730B50021002246
:10118000002400235C4D6D6805F00C0121B1042999
:1011900005D0082923D105E05C4D056022E05B4DB8
:1011A00005601FE0544D6D6805F47012524D6D6876
:1011B00005F48034022505EB92421CB9544D554389
:1011C00005600BE04C4D6D6805F400351DB1504DC8
:1011D0005543056002E04D4D5543056002E04B4D1F
:1011E000056000BF00BF444D6D6805F0F0010909BE
:1011F000484D6B5C0568DD4045603F4D6D6805F40A
:10120000E061090A434D6B5C4568DD4085603A4DFD
:101210006D6805F46051C90A3E4D6B5C4568DD4060
:10122000C560354D6D6805F44041890B3A4D6B5CE6
:10123000C568B5FBF3F5056130BD29B12E4A526989
:1012400002432D4B5A6104E02B4A526982432A4BD8
:101250005A61704729B1284A92690243264B9A6124
:1012600004E0254A92698243234B9A61704729B171
:10127000214AD2690243204BDA6104E01E4AD26956
:1012800082431D4BDA61704729B11B4AD268024381
:10129000194BDA6004E0184AD2688243164BDA60D0
:1012A000704729B1144A12690243134B1A6104E0D2
:1012B000114A12698243104B1A6170471249403932
:1012C000086070470F49C86470470B49C871704780
:1012D0000948406A40F080700749486270470146FB
:1012E0000020054A92680A400AB1012000E000206F
:1012F0007047014988727047001002400000FFF8F3
:10130000FFFFF6FE000042428004424200127A00D3
:1013100000093D00200000203000002010B50446E8
:10132000FB48844209D101218803FFF7ADFF00216A
:101330004FF48040FFF7A8FF32E0F648844209D11D
:1013400001214804FFF7ADFF00214FF40030FFF703
:10135000A8FF25E0F048844209D101218804FFF765
:10136000A0FF00214FF48020FFF79BFF18E0EB481F
:10137000844209D10121C804FFF793FF00214FF4F3
:101380000020FFF78EFF0BE0E548844208D10121E1
:101390000805FFF786FF00214FF48010FFF781FF5B
:1013A00010BD2DE9F04786B005460E460024A24642
:1013B00000BFA1460027B08900B100BF2F462C8A8C
:1013C0004CF6FF700440F08804432C82AC894EF642
:1013D000F3100440B08831890843718908430443FD
:1013E000AC81AC8A4FF6FF400440B0890443AC8224
:1013F00001A8FFF7C2FEC648874202D1DDF810A05F
:1014000001E0DDF80CA0A88900F4004040B10AEB2F
:10141000CA0000EB0A1031684900B0FBF1F807E0A0
:101420000AEBCA0000EB0A1031688900B0FBF1F842
:101430006420B8FBF0F004012009642101FB10894D
:10144000A88900F4004040B1322000EBC900B0FB95
:10145000F1F000F00700044308E0322000EB09102F
:101460006421B0FBF1F000F00F0004432C8106B0C2
:10147000BDE8F0874FF41651016000218180C180E2
:1014800001810C21418100218181704710B5024604
:101490000020108A4FF2FF0318400B884C8823432A
:1014A0008C882343CC8823431843108210BD00212D
:1014B000018041808180C180704721B1828942F4DE
:1014C0000052828104E082894DF6FF731A408281C6
:1014D0007047F0B50346002400260025002040F6A2
:1014E0006A17B94200D100BF1846C1F3421401F097
:1014F0001F06012707FA06F5012C01D10C3004E084
:10150000022C01D1103000E014301AB107682F43CB
:10151000076002E00768AF430760F0BD1AB1838A35
:101520000B43838202E0838A8B4383827047028A63
:101530004FF6F0731A400282028A0A430282704711
:1015400082894FF2FF731A40828182890A43828125
:10155000704721B1828942F00202828104E08289CF
:101560004FF6FD731A4082817047028A4FF6DF738F
:101570001A400282028A0A430282704721B1028A1B
:1015800042F48042028204E0028A4BF6FF731A4062
:1015900002827047C1F30802828070470146888842
:1015A000C0F308007047818941F0010181817047D3
:1015B000028BD2B20283028B42EA0122028370477D
:1015C000028B02F47F420283028B0A43028370473C
:1015D00021B1828A42F02002828204E0828A4FF6A0
:1015E000DF731A408282704721B1828A42F0100272
:1015F000828204E0828A4FF6EF731A40828270473B
:1016000021B1828A42F00802828204E0828A4FF687
:10161000F7731A408282704721B1828942F40042F6
:10162000828103E08289C2F30E028281704721B178
:10163000828A42F40062828204E0828A4FF2FF735F
:101640001A4082827047828A4FF6FB731A40828268
:10165000828A0A438282704721B1828A42F0020262
:10166000828204E0828A4FF6FD731A4082827047BC
:1016700002460020B1F5007F00D100BF13880B4067
:101680000BB1012000E00020704701F40072B2F5B8
:10169000007F00D100BFCA430280704770B5024688
:1016A000002400230025002040F66A16B14200D134
:1016B00000BFC1F3421501F01F03012606FA03F330
:1016C000012D02D19689334006E0022D02D1168AFF
:1016D000334001E0968A33400C12012606FA04F4E6
:1016E0001688344013B10CB1012000E0002070BD19
:1016F00010B50022002340F66A14A14200D100BFB9
:101700000A1201249440A3B2DC43048010BD0000FF
:10171000003801400044004000480040004C0040B8
:101720000050004031490143314A1160704770B5A3
:10173000002100230F22C47804B32D4C246804F444
:10174000E064C4F5E064210AC1F10403CA404478AE
:1017500004FA03F18478144021430901254C0678EA
:10176000A155047804F01F050124AC4005786D11E3
:10177000AD0005F1E025C5F8004109E0047804F06A
:101780001F050124AC401C4D0678761145F8264013
:1017900070BD1A4A0A400243154B1B1F1A6070475E
:1017A00039B1134A121D12680243114B1B1D1A60F6
:1017B00006E00F4A121D126882430D4B1B1D1A6072
:1017C0007047042808D14FF0E021096941F0040175
:1017D0004FF0E022116107E04FF0E021096921F0AC
:1017E00004014FF0E0221161704700000000FA058B
:1017F0000CED00E000E400E080E100E080FFFF1F6E
:1018000001460020FE4A106800F0380008431060CE
:101810007047FB49096821F00801F94A1160114637
:101820000968014311607047F549096821F010010A
:10183000F34A116011460968014311607047F1488D
:10184000EF494860F04848607047EE48EC4948600E
:10185000ED4848607047EA48006940F08000E84978
:1018600008617047E648006940F08000E44908617B
:1018700070470420E249C96801F0010109B1012063
:101880000EE0DF49C96801F0040109B1022007E058
:10189000DB49C96801F0100109B1032000E0042010
:1018A000704700B502460423FFF7E3FF034603E059
:1018B000FFF7DFFF0346521E012B01D1002AF7D1AB
:1018C00002B90523184600BD30B5044604254FF47F
:1018D0003020FFF7E6FF0546042D17D1C848006900
:1018E00040F00200C649086108464461006940F0C2
:1018F000400008614FF43020FFF7D3FF0546C04891
:10190000006941F6FD710840BD490861284630BDB7
:1019100010B504244FF43020FFF7C3FF0446042C15
:1019200016D1B748006940F00400B549086108467F
:10193000006940F0400008614FF43020FFF7B1FF2C
:101940000446AF48006941F6FB710840AC490861A4
:10195000204610BD00B502460423FFF78AFF034668
:1019600003E0FFF786FF0346521E012B01D1002A38
:10197000F7D102B90523184600BD10B504244FF471
:101980003020FFF7E7FF0446042C16D19C4800697D
:1019900040F004009A4908610846006940F04000A0
:1019A00008614FF43020FFF7D5FF044694480069E2
:1019B00041F6FB71084092490861204610BD0020A5
:1019C0008F49C96901F0020109B1012000E000203E
:1019D000704730B5A5250424FFF7F1FF00B10025BD
:1019E0004FF43020FFF75DFF0446042C3AD18548C0
:1019F00083498860844888600846006940F0200078
:101A000008610846006940F0400008614FF430204A
:101A1000FFF747FF0446042C1BD17948006941F6C3
:101A2000DF710840764908610846006940F01000FF
:101A3000086176480580E002FFF733FF0446052C75
:101A400010D06F48006941F6EF7108406C49086199
:101A500008E0052C06D06A48006941F6EF7108409D
:101A600067490861204630BD78B506460C46042516
:101A700000200090E802FFF714FF0546042D24D152
:101A80005F48006940F001005D4908613480E80268
:101A9000FFF707FF0546042D10D1B01C0090200C65
:101AA00000990880E802FFF7FCFE054654480069EB
:101AB00041F6FE7108405249086106E0504800694D
:101AC00041F6FE7108404E490861284678BD70B560
:101AD00004460D460426F002FFF7E3FE0646042EF8
:101AE00011D14748006940F001004549086125804F
:101AF000F002FFF7D6FE06464148006941F6FE7146
:101B000008403F490861304670BD70B505460E4635
:101B10000424E002FFF7C5FE0446042C17D139481F
:101B200037498860384888600846006940F01000EE
:101B300008612E80E002FFF7B4FE0446052C06D0B3
:101B40002F48006941F6EF7108402D490861204691
:101B500070BD2DE9F04304464FF6FF763746B04698
:101B6000B1460425E443E6B2C4F30727C4F30748AB
:101B70004FEA1469E802FFF794FE0546042D49D1A7
:101B800020481F498860204888600846006940F066
:101B900010000861FF2E06D01C4808300680E802BD
:101BA000FFF77FFE0546042D08D1FF2F06D017480A
:101BB0000A300780E802FFF774FE0546042D0AD1BB
:101BC000B8F1FF0F07D011480C30A0F80080E802F0
:101BD000FFF767FE0546042D0AD1B9F1FF0F07D0C4
:101BE0000A480E30A0F80090E802FFF75AFE0546BA
:101BF000052D0FD00248006941F6EF71084007E05B
:101C00000020024023016745AB89EFCD00F8FF1F9C
:101C1000664908612846BDE8F08330B505460424CE
:101C20004FF43020FFF73DFE0446042C41D16048BC
:101C30005E4988605F4888600846006940F020007F
:101C400008610846006940F0400008614FF4302008
:101C5000FFF727FE0446042C22D15448006941F6C0
:101C6000DF710840514908610846006940F01000E2
:101C700008611DB100205049088002E0A5204E49AE
:101C800008804FF43020FFF70CFE0446052C10D0DE
:101C90004648006941F6EF7108404449086108E090
:101CA000052C06D04148006941F6DF7108403F49E4
:101CB0000861204630BDF0B505460E46174604249F
:101CC0003B483A4988603B488860E002FFF7E9FDFD
:101CD0000446042C19D13548006940F010003349FE
:101CE000086147F0F800304328433349891C0880D5
:101CF000E002FFF7D6FD0446052C06D02B4800690C
:101D000041F6EF710840294908612046F0BD274897
:101D1000C069800870472548006A70470020234941
:101D2000096801F0200109B1012000E0002070479E
:101D300029B11E4A126902431C4B1A6104E01B4A76
:101D400012698243194B1A6170470146002001292C
:101D500008D1164AD26902F001020AB1012008E056
:101D6000002006E0114AD2680A400AB1012000E0D2
:101D7000002070470D49C860704704200B49C968AE
:101D800001F0010109B101200EE00849C96801F024
:101D9000040109B1022007E00449C96801F01001FB
:101DA00009B1032000E00420704700000020024039
:101DB00023016745AB89EFCD00F8FF1F10B504463E
:101DC000FE48844208D10121C014FFF75DFA0021CA
:101DD000E014FFF759FAC4E0B4F1804F08D10121B3
:101DE0000846FFF75EFA00210120FFF75AFAB8E033
:101DF000F348844208D101210220FFF752FA002162
:101E00000220FFF74EFAACE0EE48844208D10121EF
:101E10000420FFF746FA00210420FFF742FAA0E071
:101E2000E948844208D101210820FFF73AFA00214D
:101E30000820FFF736FA94E0E448844208D10121F3
:101E40001020FFF72EFA00211020FFF72AFA88E071
:101E5000DF48844208D101212020FFF722FA002127
:101E60002020FFF71EFA7CE0DA48844208D10121E5
:101E70004014FFF709FA00216014FFF705FA70E03B
:101E8000D548844209D10121C804FFF7FDF900219A
:101E90004FF40020FFF7F8F963E0D048844209D1FD
:101EA00001210805FFF7F0F900214FF48010FFF73A
:101EB000EBF956E0CA48844209D101214805FFF7F1
:101EC000E3F900214FF40010FFF7DEF949E0C548BF
:101ED000844208D101214020FFF7E3F9002140208E
:101EE000FFF7DFF93DE0C048844208D1012180209E
:101EF000FFF7D7F900218020FFF7D3F931E0BB4885
:101F0000844208D101218015FFF7CBF90021A015EB
:101F1000FFF7C7F925E0B648844209D1012108043A
:101F2000FFF7B2F900214FF48030FFF7ADF918E068
:101F3000B048844209D101214804FFF7A5F90021E6
:101F40004FF40030FFF7A0F90BE0AB48844208D112
:101F500001218804FFF798F900214FF48020FFF752
:101F600093F910BD00220288944B98420ED0994BF1
:101F700098420BD0B0F1804F08D0914B984205D0D9
:101F8000904B984202D0904B984204D14FF68F73F9
:101F90001A404B881A438D4B984207D08C4B98427D
:101FA00004D04FF6FF431A40CB881A4302808B8837
:101FB00083850B880385814B98420BD0854B9842D3
:101FC00008D08B4B984205D08A4B984202D08A4B5E
:101FD000984201D10B7A038601238382704770B542
:101FE000002400220023058C4FF6FE763540058440
:101FF000028C8388048B4FF68F752C40B51E2C40C5
:102000000D882C43751E2A400D892A434D882A438A
:102010006A4DA8420BD06F4DA84208D0744DA8421B
:1020200005D0744DA84202D0734DA84213D14FF68B
:10203000F7752A404D892A434FF6FB752A408D8853
:102040002A434FF6FF652B404FF6FF552B408D89F5
:102050002B43CD892B4383800483CD8885860284DE
:1020600070BD70B5002400220023058C4FF6EF767A
:1020700035400584028C8388048B48F6FF752C401C
:102080004FF6FF452C400D884FF6FF7606EA0525F2
:102090002C434FF6DF752A400D8906EA05152A43C1
:1020A0004D8806EA05152A43444DA84202D0494D01
:1020B000A8421DD14FF67F752A404D894FF6FF7615
:1020C00006EA05152A434FF6BF752A408D8806EAB1
:1020D00005152A434FF6FF352B404FF2FF752B4075
:1020E0008D8906EA85052B43CD8906EA85052B43B4
:1020F00083800483CD880587028470BD70B5002479
:1021000000220023058C4FF6FF6635400584028CC3
:102110008388848B4FF68F752C404FF6FC752C40CE
:102120000D882C434FF6FF552A400D894FF6FF7658
:1021300006EA05252A434D8806EA05252A431F4D50
:10214000A84202D0234DA8421DD14FF2FF752A406C
:102150004D894FF6FF7606EA05252A434FF6FF35EF
:102160002A408D8806EA05252A434EF6FF752B4046
:102170004DF6FF752B408D8906EA05152B43CD8959
:1021800006EA05152B4383808483CD8885870284E6
:1021900070BD70B5002200230024058C4EF6FF763A
:1021A00035400584038C8488828B48F6FF752A406D
:1021B0004FF6FF452A400D8820E00000002C01402A
:1021C0000004004000080040000C004000100040E7
:1021D0000014004000340140004C01400050014018
:1021E0000054014000180040001C00400020004046
:1021F0000040014000440140004801404FF6FF7696
:1022000006EA05252A434DF6FF752B400D8906EA9F
:1022100005352B434D8806EA05352B43FA4DA84278
:1022200002D0FA4DA84208D14BF6FF752C408D899B
:102230004FF6FF7606EA85152C4384808283CD888D
:10224000A0F84050038470BD828B4FF2FF331A40D8
:102250008283828B4FF6FF7303EA01231A43828342
:102260007047F0B50C461546002200210026078C69
:102270004EF6FF7C07EA0C070784828B018C4FF631
:10228000FF7707EA043640F6FF473A404FF6FF77FC
:1022900007EA05273A434FF6FF7707EA03373A4341
:1022A000D94FB8420ED0D94FB8420BD0B0F1804FC1
:1022B00008D0D74FB84205D0D64FB84202D0D64F3B
:1022C000B84206D14DF6FF77394046F4805739437E
:1022D00005E047F6FF57394044F48057394382837D
:1022E0000184F0BD828B4FF6F3731A408283828B98
:1022F0000A4382837047F0B50C4615460022002140
:102300000026078C4FF6FF6C07EA0C070784828BC8
:10231000018C4FF6FF7707EA04264FF60C773A4018
:102320004FF6FF7707EA03172F433A43B64FB842F9
:102330000ED0B64FB8420BD0B0F1804F08D0B44F9A
:10234000B84205D0B34FB84202D0B34FB84206D11D
:102350004FF6FF57394046F48077394305E04FF296
:10236000FF57394044F48077394382830184F0BDBC
:10237000028B4FF2FF331A400283028B4FF6FF733A
:1023800003EA01231A4302837047F0B50C46154651
:10239000002200210026078C4FF6EF7C07EA0C078D
:1023A0000784028B018C4FF6FF7707EA041640F68C
:1023B000FF473A404FF6FF7707EA03373A434FF6B5
:1023C000FF7707EA05273A438F4FB8420ED08F4F69
:1023D000B8420BD0B0F1804F08D08D4FB84205D035
:1023E0008C4FB84202D08C4FB84206D14FF6DF77FF
:1023F000394046F01007394305E04FF65F77394022
:1024000044F01007394302830184F0BD028B4FF67C
:10241000F3731A400283028B0A4302837047F0B5BC
:102420000C46154600220021068C4FF6FE773E40F2
:102430000684028B018C4FF60C7632407E1C06EA35
:1024400003162E433243704EB0420ED06F4EB04250
:102450000BD0B0F1804F08D06D4EB04205D06D4E1C
:10246000B04202D06C4EB04206D14FF6FD763140FC
:1024700044F00106314305E04FF6F576314044F073
:102480000106314302830184F0BD70B505460C4658
:102490005D4885420ED05D4885420BD0B5F1804F36
:1024A00008D05B48854205D05A48854202D05A4838
:1024B000854200D100E000BF208850B92389A2885E
:1024C00061882846FFF7ABFFE1882846FFF79EFFAB
:1024D00025E0208804280AD12389A288618828461B
:1024E000FFF753FFE1882846FFF742FF17E02088F7
:1024F00008280AD12389A28861882846FFF7FBFEB5
:10250000E1882846FFF7EEFE09E02389A28861886A
:102510002846FFF7A6FEE1882846FFF795FE70BD26
:102520002DE9F04105460C4600260127608808B9D0
:10253000022600E00026A088012801D1022700E041
:1025400001272088A0B92389A28861882846FFF73F
:1025500066FFE1882846FFF759FF23893A4631464E
:102560002846FFF712FFE1882846FFF701FF13E036
:102570002389A28861882846FFF707FFE18828465B
:10258000FFF7F6FE23893A4631462846FFF747FF14
:10259000E1882846FFF73AFFBDE8F0810A884B88BA
:1025A0001A438B881A43CB881A430B891A434B89E9
:1025B0001A438B891A43A0F8442070474FF6FF71E5
:1025C000818000210180C18041800172704700211B
:1025D000018041808180C180018141818181C181EF
:1025E0007047002101804180012181800021C1804C
:1025F000018170470021018041808180C18001817B
:102600004181818170470000002C0140003401406D
:102610000004004000080040000C004021B1028886
:1026200042F00102028004E002884FF6FE731A4075
:102630000280704731B1B0F8442042F40042A0F863
:10264000442005E0B0F84420C2F30E02A0F8442074
:1026500070471AB183890B43838102E083898B43DE
:10266000838170478182704741EA0203A0F84830B5
:1026700070471AB183890B43838102E083898B43BE
:102680008381704701894FF6F872114001817047CC
:102690000A46002101894FF68F73194011430181C9
:1026A000704730B504460D4629462046FFF7F0FF37
:1026B000208940F00700208130BD2DE9F04104461B
:1026C0000D4616461F46602D06D13B460122314677
:1026D0002046FFF75AFE05E03B46012231462046E0
:1026E000FFF79DFE29462046FFF7D2FF208940F0E4
:1026F00007002081BDE8F08130B50C46002101893A
:10270000C9B24FF6FF7505EA032515432543294352
:10271000018130BD2DE9F04105460E461746984629
:10272000002443463A4631462846FFF7E5FF2C8908
:102730004FF6F870044044F007044FF68F700440E1
:1027400044F070042C81BDE8F081F0B504460D46DC
:1027500016461F463B46324629462046FFF7CCFF29
:10276000208940F480402081F0BD0185828270473D
:102770000A46002101884FF68F73194011430180EA
:102780007047F0B50C4615461E4600210022002376
:102790000189028B038C4FF6F877394021434FF6BD
:1027A000FC473A4040F201173A434FF6DD773B4091
:1027B0004FF6FF7707EA06172F433B430181028359
:1027C0000384F0BD0A460021018B4FF68F73194038
:1027D0001143018370470A460021018B48F6FF73BD
:1027E00019404FF6FF7303EA022319430183704730
:1027F0000A460021818B4FF68F7319401143818364
:1028000070470A460021818B48F6FF7319404FF646
:10281000FF7303EA022319438183704721B10288C1
:1028200042F08002028004E002884FF67F731A4073
:102830000280704721B1828842F00402828004E065
:1028400082884FF6FB731A408280704721B18288DC
:1028500042F00802828004E082884FF6F7731A4043
:102860008280704721B1828842F00102828004E0B8
:1028700082884FF6FE731A40828070470A46002114
:10288000018B4FF6F77319401143018370470A46D5
:102890000021018B4FF2FF7319404FF6FF7303EADB
:1028A00002231943018370470A460021818B4FF6AA
:1028B000F77319401143818370470A460021818BC9
:1028C0004FF2FF7319404FF6FF7303EA02231943D7
:1028D000818370470A460021018B4FF6FB73194034
:1028E0001143018370470A460021018B4FF6FF33E5
:1028F00019404FF6FF7303EA02231943018370471F
:102900000A460021818B4FF6FB73194011438183E6
:1029100070470A460021818B4FF6FF3319404FF66E
:10292000FF7303EA02231943818370470A4600219B
:10293000018B4FF67F7319401143018370470A469C
:102940000021018BC1F30E014FF6FF7303EA02234E
:102950001943018370470A460021818B4FF67F732C
:1029600019401143818370470A460021818BC1F3CE
:102970000E014FF6FF7303EA022319438183704768
:102980000A460021018C4FF6FD7319401143018462
:1029900070470A460021018C4FF6F7731940114326
:1029A000018470470A460021018C4FF6DF731940FD
:1029B0004FF6FF7303EA02131943018470470A4676
:1029C0000021018C4FF67F7319404FF6FF7303EA25
:1029D00002131943018470470A460021018C4FF607
:1029E000FF5319404FF6FF7303EA02231943018492
:1029F00070470A460021018C4FF2FF7319404FF6D1
:102A0000FF7303EA02231943018470470A46002139
:102A1000018C4DF6FF7319404FF6FF7303EA023342
:102A200019430184704730B5002301248C40A3B2C0
:102A3000048C9C430484048C02FA01F5ADB22C434F
:102A4000048430BD30B5002304248C40A3B2048C30
:102A50009C430484048C02FA01F5ADB22C43048437
:102A600030BD70B5034600200024184618300125FB
:102A70008D40ACB21D8CA5431D8409B1082909D134
:102A800000EB6100056825F07005056005681543D9
:102A900005600EE00D1FC5F34E052844056825F4BA
:102AA000E045056005684FF6FF7606EA02263543E5
:102AB000056070BD21B1028842F00202028004E08C
:102AC00002884FF6FD731A400280704721B10288D8
:102AD00042F00402028004E002884FF6FB731A40C1
:102AE0000280704721B1828842F08002828004E037
:102AF00082884FF67F731A408280704702884FF6B3
:102B0000F7731A40028002880A4302807047828865
:102B10004FF68F731A40828082880A438280704702
:102B200002894FF6F8731A40028102890A43028132
:102B3000704702894FF67F731A40028102890A4367
:102B40000281704781847047818570478186704714
:102B50000187704781877047A0F84010704702884E
:102B60004FF6FF431A40028002880A4302807047F2
:102B70000146888E70470146088F70470146888F4E
:102B800070470146B1F8400070470146888C704795
:102B90000146088D704702460020138A0B400BB196
:102BA000012000E000207047CA430282704730B520
:102BB0000246002000230024158A05EA01039589B6
:102BC00005EA010413B10CB1012000E0002030BD82
:102BD000CA4302827047D2B201E000F8012B491EBD
:102BE000FBD270470022F6E710B513460A460446AA
:102BF0001946FFF7F0FF204610BD30B5044600200F
:102C0000034600E05B1C934203D2E05CCD5C401BBA
:102C1000F8D030BD2DE9F05F0546002092469B4676
:102C200088460646814640241BE0284641464746E2
:102C3000224600F042F853465A46C01A914110D33A
:102C400011461846224600F029F82D1A67EB0108B4
:102C50004F4622460120002100F020F817EB000922
:102C60004E41201EA4F10104DFDC484631462A46CD
:102C70004346BDE8F09F0000064C074D06E0E068C3
:102C800040F0010394E8070098471034AC42F6D3B3
:102C9000FDF752FA80310008A0310008202A04DB39
:102CA000203A00FA02F1002070479140C2F120035F
:102CB00020FA03F3194390407047202A04DB203A9E
:102CC00021FA02F00021704721FA02F3D040C2F14C
:102CD0002002914008431946704700000FB4054B8D
:102CE00010B503A9044A029800F018F810BC5DF86A
:102CF00014FB00000F0500081C00002002E008C8BB
:102D0000121F08C1002AFAD170477047002001E065
:102D100001C1121F002AFBD1704700002DE9FF4FAF
:102D20008DB00F460546002606E025280BD0DDE9CC
:102D30000F1290476D1C761C28780028F5D111B031
:102D40003046BDE8F08F0024A246A1460122EC499E
:102D500000E0044315F8013F203B02FA03F008426B
:102D6000F7D128782A2810D06FF02F022878A0F108
:102D70003001092914D80AEB8A0102EB410144F021
:102D8000020400EB010A6D1CF0E701CF5FEA000AC4
:102D900003D544F40054CAF1000A44F002046D1C47
:102DA00028782E2817D115F8010F44F004042A289A
:102DB0000ED06FF02F022878A0F1300109290AD82F
:102DC00009EB890102EB410100EB01096D1CF2E7FF
:102DD00057F8049B6D1C28786C280FD006DC4C2813
:102DE00017D068280DD06A2814D104E0742810D0B8
:102DF0007A280FD10DE044F400140AE044F4801462
:102E000001E044F440146978814202D104F5801451
:102E10006D1C6D1C2A786E2A1FD00CDC632A31D001
:102E200004DC002A8BD0582A11D1A3E0642A68D090
:102E3000692A0CD165E0732A2ED004DC6F2A73D086
:102E4000702A04D19BE0752A6FD0782A6ED0104684
:102E5000DDE90F129047761C50E1C4F302500228BE
:102E600006D0032809D0042801CF09D0066045E127
:102E700001CFF117C0E9006140E101CF06803DE1DB
:102E800006703BE117F8040B8DF8000000208DF868
:102E90000100EB46012003E057F804BB4FF0FF3080
:102EA00061074FF0000102D40DE008F101018846EE
:102EB00049450FDA8045F8DB1BF808100029F4D1EA
:102EC00008E008F1010188468142FADB1BF808108E
:102ED0000029F6D1DDE90F23AAEB0800814621463F
:102EE00000F036F9304400EB080604E0DDE90F128B
:102EF0001BF8010B9047B8F10108F7D2214648466C
:102F0000F7E00A21C4F302534FF0000B0891022BA3
:102F100004D001CFC117032B09D00AE0FF1D27F011
:102F20000707F7E8020108E032E01FE020E000B206
:102F3000C117042B01D140B2C117031E71F1000368
:102F400007DA4FF0000CD0EB0C006CEB01012D23E5
:102F500002E0230504D52B238DF82430012303E060
:102F6000E30701D02023F7E7984658E00A2110E054
:102F700010210EE010204FF0000B08900CE0102103
:102F80004FF0000B44F004044FF00809089103E0EF
:102F900008214FF0000B0891C4F30253022B04D018
:102FA00001CF0021032B06D006E0FF1D27F0070705
:102FB000F7E8020103E080B2042B00D1C0B24FF069
:102FC000000823072BD5702A07D0DDF820C08CF02D
:102FD000100C5CEA0B0C05D00EE040238DF8243079
:102FE000012308E050EA010306D030238DF8243095
:102FF0008DF8252002239846DDF820C08CF0080CBF
:103000005CEA0B0C0BD150EA010301D1630706D532
:1030100030238DF824304FF00108A9F10109582A16
:1030200004D038A20B9208AA0A920BE03AA2F9E760
:103030005B46089AFFF7EEFD0B9B9B5C0A9A521EBB
:103040000A92137050EA0102F2D10A98ADEB000027
:1030500000F1200B600702D524F4803401E04FF02A
:103060000109D94502DDA9EB0B0000E0002000EBCF
:103070000B0141440890AAEB010AE00306D4DDE904
:103080000F232146504600F063F806444FF0000934
:1030900008E009A911F80900DDE90F12904709F1CC
:1030A0000109761CC145F4DBE0030CD5DDE90F23F3
:1030B0002146504600F04CF8064404E0DDE90F12CA
:1030C00030209047761C0899481E08900029F5DCAE
:1030D00008E00A980A990078491C0A91DDE90F1264
:1030E0009047761CBBF10001ABF1010BF1DC2146EE
:1030F0005046DDE90F2300F019F806446D1C1BE66D
:1031000009280100303132333435363738396162BD
:103110006364656600000000303132333435363781
:103120003839414243444546000000002DE9F04152
:10313000044600251E461746880404D405E0394697
:103140002020B0476D1C641EF9D52846BDE8F081EB
:103150002DE9F041044600251E469046C80301D5DE
:10316000302700E02027880404D505E04146384692
:10317000B0476D1C641EF9D52846BDE8F0810000FB
:10318000A03100080000002034000000FC2C0008E2
:10319000D431000834000020DC0B00000C2D0008A6
:1031A00000A24A0400000000000000000102030425
:1031B00006070809000000000000000000000000F1
:1031C00000000000010203040102030406070809CD
:0431D00002040608E7
:0400000508000131BD
:00000001FF
